{
  "contractName": "Chance",
  "abi": [
    {
      "inputs": [],
      "stateMutability": "nonpayable",
      "type": "constructor"
    },
    {
      "anonymous": false,
      "inputs": [
        {
          "indexed": true,
          "internalType": "address",
          "name": "owner",
          "type": "address"
        },
        {
          "indexed": true,
          "internalType": "address",
          "name": "approved",
          "type": "address"
        },
        {
          "indexed": true,
          "internalType": "uint256",
          "name": "tokenId",
          "type": "uint256"
        }
      ],
      "name": "Approval",
      "type": "event"
    },
    {
      "anonymous": false,
      "inputs": [
        {
          "indexed": true,
          "internalType": "address",
          "name": "owner",
          "type": "address"
        },
        {
          "indexed": true,
          "internalType": "address",
          "name": "operator",
          "type": "address"
        },
        {
          "indexed": false,
          "internalType": "bool",
          "name": "approved",
          "type": "bool"
        }
      ],
      "name": "ApprovalForAll",
      "type": "event"
    },
    {
      "anonymous": false,
      "inputs": [
        {
          "indexed": true,
          "internalType": "address",
          "name": "previousOwner",
          "type": "address"
        },
        {
          "indexed": true,
          "internalType": "address",
          "name": "newOwner",
          "type": "address"
        }
      ],
      "name": "OwnershipTransferred",
      "type": "event"
    },
    {
      "anonymous": false,
      "inputs": [
        {
          "indexed": true,
          "internalType": "address",
          "name": "from",
          "type": "address"
        },
        {
          "indexed": true,
          "internalType": "address",
          "name": "to",
          "type": "address"
        },
        {
          "indexed": true,
          "internalType": "uint256",
          "name": "tokenId",
          "type": "uint256"
        }
      ],
      "name": "Transfer",
      "type": "event"
    },
    {
      "anonymous": false,
      "inputs": [
        {
          "indexed": false,
          "internalType": "uint256",
          "name": "round",
          "type": "uint256"
        },
        {
          "indexed": false,
          "internalType": "uint256",
          "name": "winner",
          "type": "uint256"
        },
        {
          "indexed": false,
          "internalType": "uint256",
          "name": "jackpot",
          "type": "uint256"
        }
      ],
      "name": "dropLog",
      "type": "event"
    },
    {
      "anonymous": false,
      "inputs": [
        {
          "indexed": true,
          "internalType": "address",
          "name": "_addrMint",
          "type": "address"
        },
        {
          "indexed": false,
          "internalType": "address",
          "name": "_addrInvite",
          "type": "address"
        },
        {
          "indexed": false,
          "internalType": "uint256",
          "name": "amount",
          "type": "uint256"
        }
      ],
      "name": "inviteLog",
      "type": "event"
    },
    {
      "inputs": [],
      "name": "BLACKHOLE_ADDR",
      "outputs": [
        {
          "internalType": "address",
          "name": "",
          "type": "address"
        }
      ],
      "stateMutability": "view",
      "type": "function",
      "constant": true
    },
    {
      "inputs": [],
      "name": "COMMUNITY_ADDR",
      "outputs": [
        {
          "internalType": "address",
          "name": "",
          "type": "address"
        }
      ],
      "stateMutability": "view",
      "type": "function",
      "constant": true
    },
    {
      "inputs": [],
      "name": "DEVELOP_ADDR",
      "outputs": [
        {
          "internalType": "address",
          "name": "",
          "type": "address"
        }
      ],
      "stateMutability": "view",
      "type": "function",
      "constant": true
    },
    {
      "inputs": [
        {
          "internalType": "address",
          "name": "",
          "type": "address"
        }
      ],
      "name": "accountMap",
      "outputs": [
        {
          "internalType": "uint256",
          "name": "",
          "type": "uint256"
        }
      ],
      "stateMutability": "view",
      "type": "function",
      "constant": true
    },
    {
      "inputs": [
        {
          "internalType": "address",
          "name": "to",
          "type": "address"
        },
        {
          "internalType": "uint256",
          "name": "tokenId",
          "type": "uint256"
        }
      ],
      "name": "approve",
      "outputs": [],
      "stateMutability": "nonpayable",
      "type": "function"
    },
    {
      "inputs": [
        {
          "internalType": "address",
          "name": "owner",
          "type": "address"
        }
      ],
      "name": "balanceOf",
      "outputs": [
        {
          "internalType": "uint256",
          "name": "",
          "type": "uint256"
        }
      ],
      "stateMutability": "view",
      "type": "function",
      "constant": true
    },
    {
      "inputs": [],
      "name": "baseTokenURI",
      "outputs": [
        {
          "internalType": "string",
          "name": "",
          "type": "string"
        }
      ],
      "stateMutability": "view",
      "type": "function",
      "constant": true
    },
    {
      "inputs": [
        {
          "internalType": "uint256",
          "name": "tokenId",
          "type": "uint256"
        }
      ],
      "name": "getApproved",
      "outputs": [
        {
          "internalType": "address",
          "name": "",
          "type": "address"
        }
      ],
      "stateMutability": "view",
      "type": "function",
      "constant": true
    },
    {
      "inputs": [
        {
          "internalType": "address",
          "name": "owner",
          "type": "address"
        },
        {
          "internalType": "address",
          "name": "operator",
          "type": "address"
        }
      ],
      "name": "isApprovedForAll",
      "outputs": [
        {
          "internalType": "bool",
          "name": "",
          "type": "bool"
        }
      ],
      "stateMutability": "view",
      "type": "function",
      "constant": true
    },
    {
      "inputs": [],
      "name": "jackpot",
      "outputs": [
        {
          "internalType": "uint256",
          "name": "",
          "type": "uint256"
        }
      ],
      "stateMutability": "view",
      "type": "function",
      "constant": true
    },
    {
      "inputs": [],
      "name": "lastEnd",
      "outputs": [
        {
          "internalType": "uint256",
          "name": "",
          "type": "uint256"
        }
      ],
      "stateMutability": "view",
      "type": "function",
      "constant": true
    },
    {
      "inputs": [],
      "name": "name",
      "outputs": [
        {
          "internalType": "string",
          "name": "",
          "type": "string"
        }
      ],
      "stateMutability": "view",
      "type": "function",
      "constant": true
    },
    {
      "inputs": [],
      "name": "owner",
      "outputs": [
        {
          "internalType": "address",
          "name": "",
          "type": "address"
        }
      ],
      "stateMutability": "view",
      "type": "function",
      "constant": true
    },
    {
      "inputs": [
        {
          "internalType": "uint256",
          "name": "tokenId",
          "type": "uint256"
        }
      ],
      "name": "ownerOf",
      "outputs": [
        {
          "internalType": "address",
          "name": "",
          "type": "address"
        }
      ],
      "stateMutability": "view",
      "type": "function",
      "constant": true
    },
    {
      "inputs": [],
      "name": "renounceOwnership",
      "outputs": [],
      "stateMutability": "nonpayable",
      "type": "function"
    },
    {
      "inputs": [],
      "name": "round",
      "outputs": [
        {
          "internalType": "uint256",
          "name": "",
          "type": "uint256"
        }
      ],
      "stateMutability": "view",
      "type": "function",
      "constant": true
    },
    {
      "inputs": [
        {
          "internalType": "address",
          "name": "from",
          "type": "address"
        },
        {
          "internalType": "address",
          "name": "to",
          "type": "address"
        },
        {
          "internalType": "uint256",
          "name": "tokenId",
          "type": "uint256"
        }
      ],
      "name": "safeTransferFrom",
      "outputs": [],
      "stateMutability": "nonpayable",
      "type": "function"
    },
    {
      "inputs": [
        {
          "internalType": "address",
          "name": "from",
          "type": "address"
        },
        {
          "internalType": "address",
          "name": "to",
          "type": "address"
        },
        {
          "internalType": "uint256",
          "name": "tokenId",
          "type": "uint256"
        },
        {
          "internalType": "bytes",
          "name": "_data",
          "type": "bytes"
        }
      ],
      "name": "safeTransferFrom",
      "outputs": [],
      "stateMutability": "nonpayable",
      "type": "function"
    },
    {
      "inputs": [
        {
          "internalType": "address",
          "name": "operator",
          "type": "address"
        },
        {
          "internalType": "bool",
          "name": "approved",
          "type": "bool"
        }
      ],
      "name": "setApprovalForAll",
      "outputs": [],
      "stateMutability": "nonpayable",
      "type": "function"
    },
    {
      "inputs": [],
      "name": "symbol",
      "outputs": [
        {
          "internalType": "string",
          "name": "",
          "type": "string"
        }
      ],
      "stateMutability": "view",
      "type": "function",
      "constant": true
    },
    {
      "inputs": [
        {
          "internalType": "uint256",
          "name": "index",
          "type": "uint256"
        }
      ],
      "name": "tokenByIndex",
      "outputs": [
        {
          "internalType": "uint256",
          "name": "",
          "type": "uint256"
        }
      ],
      "stateMutability": "view",
      "type": "function",
      "constant": true
    },
    {
      "inputs": [
        {
          "internalType": "address",
          "name": "owner",
          "type": "address"
        },
        {
          "internalType": "uint256",
          "name": "index",
          "type": "uint256"
        }
      ],
      "name": "tokenOfOwnerByIndex",
      "outputs": [
        {
          "internalType": "uint256",
          "name": "",
          "type": "uint256"
        }
      ],
      "stateMutability": "view",
      "type": "function",
      "constant": true
    },
    {
      "inputs": [],
      "name": "totalSupply",
      "outputs": [
        {
          "internalType": "uint256",
          "name": "",
          "type": "uint256"
        }
      ],
      "stateMutability": "view",
      "type": "function",
      "constant": true
    },
    {
      "inputs": [
        {
          "internalType": "address",
          "name": "from",
          "type": "address"
        },
        {
          "internalType": "address",
          "name": "to",
          "type": "address"
        },
        {
          "internalType": "uint256",
          "name": "tokenId",
          "type": "uint256"
        }
      ],
      "name": "transferFrom",
      "outputs": [],
      "stateMutability": "nonpayable",
      "type": "function"
    },
    {
      "inputs": [
        {
          "internalType": "address",
          "name": "newOwner",
          "type": "address"
        }
      ],
      "name": "transferOwnership",
      "outputs": [],
      "stateMutability": "nonpayable",
      "type": "function"
    },
    {
      "inputs": [
        {
          "internalType": "uint256",
          "name": "",
          "type": "uint256"
        }
      ],
      "name": "winnerMap",
      "outputs": [
        {
          "internalType": "uint256",
          "name": "_winnerID",
          "type": "uint256"
        },
        {
          "internalType": "uint256",
          "name": "_jackpot",
          "type": "uint256"
        },
        {
          "internalType": "bool",
          "name": "_withdraw",
          "type": "bool"
        },
        {
          "internalType": "uint256",
          "name": "_timestamp",
          "type": "uint256"
        }
      ],
      "stateMutability": "view",
      "type": "function",
      "constant": true
    },
    {
      "inputs": [],
      "name": "winnerTTL",
      "outputs": [
        {
          "internalType": "uint256",
          "name": "",
          "type": "uint256"
        }
      ],
      "stateMutability": "view",
      "type": "function",
      "constant": true
    },
    {
      "inputs": [
        {
          "internalType": "address[]",
          "name": "addressList",
          "type": "address[]"
        },
        {
          "internalType": "uint256[]",
          "name": "tokenIds",
          "type": "uint256[]"
        }
      ],
      "name": "batchTransfer",
      "outputs": [],
      "stateMutability": "nonpayable",
      "type": "function"
    },
    {
      "inputs": [
        {
          "internalType": "uint256",
          "name": "tokenId",
          "type": "uint256"
        }
      ],
      "name": "tokenURI",
      "outputs": [
        {
          "internalType": "string",
          "name": "",
          "type": "string"
        }
      ],
      "stateMutability": "view",
      "type": "function",
      "constant": true
    },
    {
      "inputs": [
        {
          "internalType": "bytes4",
          "name": "interfaceId",
          "type": "bytes4"
        }
      ],
      "name": "supportsInterface",
      "outputs": [
        {
          "internalType": "bool",
          "name": "",
          "type": "bool"
        }
      ],
      "stateMutability": "view",
      "type": "function",
      "constant": true
    },
    {
      "inputs": [
        {
          "internalType": "string",
          "name": "uri",
          "type": "string"
        }
      ],
      "name": "setBaseURI",
      "outputs": [],
      "stateMutability": "nonpayable",
      "type": "function"
    },
    {
      "inputs": [
        {
          "internalType": "address",
          "name": "_addr",
          "type": "address"
        }
      ],
      "name": "setCommunityAddr",
      "outputs": [],
      "stateMutability": "nonpayable",
      "type": "function"
    },
    {
      "inputs": [
        {
          "internalType": "address",
          "name": "_addr",
          "type": "address"
        }
      ],
      "name": "setDevelopAddr",
      "outputs": [],
      "stateMutability": "nonpayable",
      "type": "function"
    },
    {
      "inputs": [
        {
          "internalType": "address",
          "name": "addr",
          "type": "address"
        }
      ],
      "name": "setChanceInvite",
      "outputs": [],
      "stateMutability": "nonpayable",
      "type": "function"
    },
    {
      "inputs": [
        {
          "internalType": "uint256",
          "name": "_t",
          "type": "uint256"
        }
      ],
      "name": "setWinnerTTL",
      "outputs": [],
      "stateMutability": "nonpayable",
      "type": "function"
    },
    {
      "inputs": [],
      "name": "mintPrice",
      "outputs": [
        {
          "internalType": "uint256",
          "name": "",
          "type": "uint256"
        }
      ],
      "stateMutability": "view",
      "type": "function",
      "constant": true
    },
    {
      "inputs": [
        {
          "internalType": "uint256",
          "name": "price",
          "type": "uint256"
        }
      ],
      "name": "setMintPrice",
      "outputs": [],
      "stateMutability": "nonpayable",
      "type": "function"
    },
    {
      "inputs": [
        {
          "internalType": "uint256",
          "name": "amount",
          "type": "uint256"
        }
      ],
      "name": "deposit",
      "outputs": [],
      "stateMutability": "payable",
      "type": "function",
      "payable": true
    },
    {
      "inputs": [],
      "name": "getBalance",
      "outputs": [
        {
          "internalType": "uint256",
          "name": "",
          "type": "uint256"
        }
      ],
      "stateMutability": "view",
      "type": "function",
      "constant": true
    },
    {
      "inputs": [
        {
          "internalType": "address",
          "name": "addr",
          "type": "address"
        }
      ],
      "name": "setDropContract",
      "outputs": [],
      "stateMutability": "nonpayable",
      "type": "function"
    },
    {
      "inputs": [],
      "name": "dropChanceWinner",
      "outputs": [],
      "stateMutability": "nonpayable",
      "type": "function"
    },
    {
      "inputs": [
        {
          "internalType": "string",
          "name": "_inviteCode",
          "type": "string"
        }
      ],
      "name": "mintWIN",
      "outputs": [
        {
          "internalType": "uint256",
          "name": "",
          "type": "uint256"
        }
      ],
      "stateMutability": "payable",
      "type": "function",
      "payable": true
    },
    {
      "inputs": [
        {
          "internalType": "string",
          "name": "_inviteCode",
          "type": "string"
        },
        {
          "internalType": "uint256",
          "name": "_count",
          "type": "uint256"
        }
      ],
      "name": "batchMintWIN",
      "outputs": [],
      "stateMutability": "payable",
      "type": "function",
      "payable": true
    },
    {
      "inputs": [
        {
          "internalType": "address",
          "name": "_addr",
          "type": "address"
        }
      ],
      "name": "checkAmount",
      "outputs": [
        {
          "internalType": "uint256",
          "name": "",
          "type": "uint256"
        }
      ],
      "stateMutability": "view",
      "type": "function",
      "constant": true
    },
    {
      "inputs": [
        {
          "internalType": "uint256",
          "name": "_round",
          "type": "uint256"
        }
      ],
      "name": "checkWinID",
      "outputs": [
        {
          "internalType": "uint256[2]",
          "name": "",
          "type": "uint256[2]"
        }
      ],
      "stateMutability": "view",
      "type": "function",
      "constant": true
    },
    {
      "inputs": [
        {
          "internalType": "uint256",
          "name": "_round",
          "type": "uint256"
        }
      ],
      "name": "checkWithdraw",
      "outputs": [
        {
          "internalType": "bool",
          "name": "",
          "type": "bool"
        }
      ],
      "stateMutability": "view",
      "type": "function",
      "constant": true
    },
    {
      "inputs": [
        {
          "internalType": "address payable",
          "name": "_to",
          "type": "address"
        }
      ],
      "name": "withdrawAmount",
      "outputs": [],
      "stateMutability": "nonpayable",
      "type": "function"
    },
    {
      "inputs": [
        {
          "internalType": "uint256",
          "name": "_round",
          "type": "uint256"
        },
        {
          "internalType": "address payable",
          "name": "_to",
          "type": "address"
        }
      ],
      "name": "withdrawByWinner",
      "outputs": [],
      "stateMutability": "nonpayable",
      "type": "function"
    }
  ],
  "bytecode": "0x60806040526001600e60006101000a81548173ffffffffffffffffffffffffffffffffffffffff021916908373ffffffffffffffffffffffffffffffffffffffff1602179055506002600f60006101000a81548173ffffffffffffffffffffffffffffffffffffffff021916908373ffffffffffffffffffffffffffffffffffffffff1602179055506000601060006101000a81548173ffffffffffffffffffffffffffffffffffffffff021916908373ffffffffffffffffffffffffffffffffffffffff160217905550348015620000d757600080fd5b506040518060400160405280600981526020017f4368616e636557494e00000000000000000000000000000000000000000000008152506040518060400160405280600381526020017f57494e000000000000000000000000000000000000000000000000000000000081525081600090805190602001906200015c92919062000274565b5080600190805190602001906200017592919062000274565b505050620001986200018c620001a660201b60201c565b620001ae60201b60201c565b6001600c8190555062000389565b600033905090565b6000600b60009054906101000a900473ffffffffffffffffffffffffffffffffffffffff16905081600b60006101000a81548173ffffffffffffffffffffffffffffffffffffffff021916908373ffffffffffffffffffffffffffffffffffffffff1602179055508173ffffffffffffffffffffffffffffffffffffffff168173ffffffffffffffffffffffffffffffffffffffff167f8be0079c531659141344cd1fd0a4f28419497f9722a3daafe3b4186f6b6457e060405160405180910390a35050565b828054620002829062000353565b90600052602060002090601f016020900481019282620002a65760008555620002f2565b82601f10620002c157805160ff1916838001178555620002f2565b82800160010185558215620002f2579182015b82811115620002f1578251825591602001919060010190620002d4565b5b50905062000301919062000305565b5090565b5b808211156200032057600081600090555060010162000306565b5090565b7f4e487b7100000000000000000000000000000000000000000000000000000000600052602260045260246000fd5b600060028204905060018216806200036c57607f821691505b6020821081141562000383576200038262000324565b5b50919050565b615e1280620003996000396000f3fe6080604052600436106102935760003560e01c806388d695b21161015a578063c1d3077d116100c1578063e985e9c51161007a578063e985e9c514610a28578063edb1432e14610a65578063f271a24e14610a7c578063f2fde38b14610aa5578063f4a0a52814610ace578063fa2d9ff014610af757610293565b8063c1d3077d14610904578063c87b56dd1461092d578063ce21f4b11461096a578063d547cfb7146109a7578063d7171cb9146109d2578063df2153c5146109fd57610293565b8063a48b0c7b11610113578063a48b0c7b146107f6578063a8e24c9e14610836578063b6b55f2514610866578063b7dc73a014610882578063b88d4fde146108bf578063ba8f14e2146108e857610293565b806388d695b2146106e85780638da5cb5b1461071157806395d89b411461073c5780639a9f3e35146107675780639fe4dccc146107a4578063a22cb465146107cd57610293565b806342842e0e116101fe5780636817c76c116101b75780636817c76c146105ea5780636b31ee011461061557806370a0823114610640578063715018a61461067d57806378bfc9091461069457806387e740eb146106bf57610293565b806342842e0e146104ca57806342ddec25146104f35780634f4201511461051e5780634f6ccce71461054757806355f804b3146105845780636352211e146105ad57610293565b8063146ca53111610250578063146ca531146103ba57806318160ddd146103e557806323b872dd146104105780632f745c591461043957806331638c6f146104765780633861489a1461049f57610293565b806301ffc9a71461029857806306fdde03146102d5578063081812fc14610300578063095ea7b31461033d57806310324b461461036657806312065fe01461038f575b600080fd5b3480156102a457600080fd5b506102bf60048036038101906102ba9190614093565b610b34565b6040516102cc91906140db565b60405180910390f35b3480156102e157600080fd5b506102ea610b46565b6040516102f7919061418f565b60405180910390f35b34801561030c57600080fd5b50610327600480360381019061032291906141e7565b610bd8565b6040516103349190614255565b60405180910390f35b34801561034957600080fd5b50610364600480360381019061035f919061429c565b610c5d565b005b34801561037257600080fd5b5061038d600480360381019061038891906142dc565b610d75565b005b34801561039b57600080fd5b506103a4610e35565b6040516103b19190614318565b60405180910390f35b3480156103c657600080fd5b506103cf610e3d565b6040516103dc9190614318565b60405180910390f35b3480156103f157600080fd5b506103fa610e43565b6040516104079190614318565b60405180910390f35b34801561041c57600080fd5b5061043760048036038101906104329190614333565b610e50565b005b34801561044557600080fd5b50610460600480360381019061045b919061429c565b610eb0565b60405161046d9190614318565b60405180910390f35b34801561048257600080fd5b5061049d600480360381019061049891906142dc565b610f55565b005b3480156104ab57600080fd5b506104b4611015565b6040516104c19190614255565b60405180910390f35b3480156104d657600080fd5b506104f160048036038101906104ec9190614333565b61103b565b005b3480156104ff57600080fd5b5061050861105b565b6040516105159190614255565b60405180910390f35b34801561052a57600080fd5b50610545600480360381019061054091906143c4565b611081565b005b34801561055357600080fd5b5061056e600480360381019061056991906141e7565b6113f0565b60405161057b9190614318565b60405180910390f35b34801561059057600080fd5b506105ab60048036038101906105a69190614526565b611461565b005b3480156105b957600080fd5b506105d460048036038101906105cf91906141e7565b6114f7565b6040516105e19190614255565b60405180910390f35b3480156105f657600080fd5b506105ff6115a9565b60405161060c9190614318565b60405180910390f35b34801561062157600080fd5b5061062a6115b3565b6040516106379190614318565b60405180910390f35b34801561064c57600080fd5b50610667600480360381019061066291906142dc565b6115b9565b6040516106749190614318565b60405180910390f35b34801561068957600080fd5b50610692611671565b005b3480156106a057600080fd5b506106a96116f9565b6040516106b69190614255565b60405180910390f35b3480156106cb57600080fd5b506106e660048036038101906106e1919061456f565b61171f565b005b3480156106f457600080fd5b5061070f600480360381019061070a9190614665565b611a6a565b005b34801561071d57600080fd5b50610726611add565b6040516107339190614255565b60405180910390f35b34801561074857600080fd5b50610751611b07565b60405161075e919061418f565b60405180910390f35b34801561077357600080fd5b5061078e600480360381019061078991906141e7565b611b99565b60405161079b91906140db565b60405180910390f35b3480156107b057600080fd5b506107cb60048036038101906107c691906142dc565b611bc6565b005b3480156107d957600080fd5b506107f460048036038101906107ef9190614712565b611c86565b005b34801561080257600080fd5b5061081d600480360381019061081891906141e7565b611c9c565b60405161082d9493929190614752565b60405180910390f35b610850600480360381019061084b9190614526565b611cd9565b60405161085d9190614318565b60405180910390f35b610880600480360381019061087b91906141e7565b611ef3565b005b34801561088e57600080fd5b506108a960048036038101906108a491906141e7565b611f02565b6040516108b69190614842565b60405180910390f35b3480156108cb57600080fd5b506108e660048036038101906108e191906148fe565b611f52565b005b61090260048036038101906108fd9190614981565b611fb4565b005b34801561091057600080fd5b5061092b600480360381019061092691906141e7565b61224b565b005b34801561093957600080fd5b50610954600480360381019061094f91906141e7565b6122d1565b604051610961919061418f565b60405180910390f35b34801561097657600080fd5b50610991600480360381019061098c91906142dc565b6122e3565b60405161099e9190614318565b60405180910390f35b3480156109b357600080fd5b506109bc61232c565b6040516109c9919061418f565b60405180910390f35b3480156109de57600080fd5b506109e76123ba565b6040516109f49190614318565b60405180910390f35b348015610a0957600080fd5b50610a126123c0565b604051610a1f9190614318565b60405180910390f35b348015610a3457600080fd5b50610a4f6004803603810190610a4a91906149dd565b6123c6565b604051610a5c91906140db565b60405180910390f35b348015610a7157600080fd5b50610a7a61245a565b005b348015610a8857600080fd5b50610aa36004803603810190610a9e91906142dc565b61267b565b005b348015610ab157600080fd5b50610acc6004803603810190610ac791906142dc565b61273b565b005b348015610ada57600080fd5b50610af56004803603810190610af091906141e7565b612833565b005b348015610b0357600080fd5b50610b1e6004803603810190610b1991906142dc565b6128b9565b604051610b2b9190614318565b60405180910390f35b6000610b3f826128d1565b9050919050565b606060008054610b5590614a4c565b80601f0160208091040260200160405190810160405280929190818152602001828054610b8190614a4c565b8015610bce5780601f10610ba357610100808354040283529160200191610bce565b820191906000526020600020905b815481529060010190602001808311610bb157829003601f168201915b5050505050905090565b6000610be38261294b565b610c22576040517f08c379a0000000000000000000000000000000000000000000000000000000008152600401610c1990614af0565b60405180910390fd5b6004600083815260200190815260200160002060009054906101000a900473ffffffffffffffffffffffffffffffffffffffff169050919050565b6000610c68826114f7565b90508073ffffffffffffffffffffffffffffffffffffffff168373ffffffffffffffffffffffffffffffffffffffff161415610cd9576040517f08c379a0000000000000000000000000000000000000000000000000000000008152600401610cd090614b82565b60405180910390fd5b8073ffffffffffffffffffffffffffffffffffffffff16610cf86129b7565b73ffffffffffffffffffffffffffffffffffffffff161480610d275750610d2681610d216129b7565b6123c6565b5b610d66576040517f08c379a0000000000000000000000000000000000000000000000000000000008152600401610d5d90614c14565b60405180910390fd5b610d7083836129bf565b505050565b610d7d6129b7565b73ffffffffffffffffffffffffffffffffffffffff16610d9b611add565b73ffffffffffffffffffffffffffffffffffffffff1614610df1576040517f08c379a0000000000000000000000000000000000000000000000000000000008152600401610de890614c80565b60405180910390fd5b80600f60006101000a81548173ffffffffffffffffffffffffffffffffffffffff021916908373ffffffffffffffffffffffffffffffffffffffff16021790555050565b600047905090565b60155481565b6000600980549050905090565b610e61610e5b6129b7565b82612a78565b610ea0576040517f08c379a0000000000000000000000000000000000000000000000000000000008152600401610e9790614d12565b60405180910390fd5b610eab838383612b56565b505050565b6000610ebb836115b9565b8210610efc576040517f08c379a0000000000000000000000000000000000000000000000000000000008152600401610ef390614da4565b60405180910390fd5b600760008473ffffffffffffffffffffffffffffffffffffffff1673ffffffffffffffffffffffffffffffffffffffff168152602001908152602001600020600083815260200190815260200160002054905092915050565b610f5d6129b7565b73ffffffffffffffffffffffffffffffffffffffff16610f7b611add565b73ffffffffffffffffffffffffffffffffffffffff1614610fd1576040517f08c379a0000000000000000000000000000000000000000000000000000000008152600401610fc890614c80565b60405180910390fd5b80601260006101000a81548173ffffffffffffffffffffffffffffffffffffffff021916908373ffffffffffffffffffffffffffffffffffffffff16021790555050565b600f60009054906101000a900473ffffffffffffffffffffffffffffffffffffffff1681565b61105683838360405180602001604052806000815250611f52565b505050565b600e60009054906101000a900473ffffffffffffffffffffffffffffffffffffffff1681565b6002600c5414156110c7576040517f08c379a00000000000000000000000000000000000000000000000000000000081526004016110be90614e10565b60405180910390fd5b6002600c81905550600f60009054906101000a900473ffffffffffffffffffffffffffffffffffffffff1673ffffffffffffffffffffffffffffffffffffffff163373ffffffffffffffffffffffffffffffffffffffff1614158061117a5750600e60009054906101000a900473ffffffffffffffffffffffffffffffffffffffff1673ffffffffffffffffffffffffffffffffffffffff163373ffffffffffffffffffffffffffffffffffffffff1614155b15611265576000601160009054906101000a900473ffffffffffffffffffffffffffffffffffffffff1673ffffffffffffffffffffffffffffffffffffffff16631315570f336040518263ffffffff1660e01b81526004016111dc9190614255565b602060405180830381865afa1580156111f9573d6000803e3d6000fd5b505050506040513d601f19601f8201168201806040525081019061121d9190614e45565b9050600a811015611263576040517f08c379a000000000000000000000000000000000000000000000000000000000815260040161125a90614ebe565b60405180910390fd5b505b6000601360003373ffffffffffffffffffffffffffffffffffffffff1673ffffffffffffffffffffffffffffffffffffffff1681526020019081526020016000205490506000479050808211156112f1576040517f08c379a00000000000000000000000000000000000000000000000000000000081526004016112e890614f2a565b60405180910390fd5b60008373ffffffffffffffffffffffffffffffffffffffff168360405161131790614f7b565b60006040518083038185875af1925050503d8060008114611354576040519150601f19603f3d011682016040523d82523d6000602084013e611359565b606091505b505090506000601360003373ffffffffffffffffffffffffffffffffffffffff1673ffffffffffffffffffffffffffffffffffffffff16815260200190815260200160002081905550806113e2576040517f08c379a00000000000000000000000000000000000000000000000000000000081526004016113d990614fdc565b60405180910390fd5b5050506001600c8190555050565b60006113fa610e43565b821061143b576040517f08c379a00000000000000000000000000000000000000000000000000000000081526004016114329061506e565b60405180910390fd5b6009828154811061144f5761144e61508e565b5b90600052602060002001549050919050565b6114696129b7565b73ffffffffffffffffffffffffffffffffffffffff16611487611add565b73ffffffffffffffffffffffffffffffffffffffff16146114dd576040517f08c379a00000000000000000000000000000000000000000000000000000000081526004016114d490614c80565b60405180910390fd5b80601990805190602001906114f3929190613f38565b5050565b6000806002600084815260200190815260200160002060009054906101000a900473ffffffffffffffffffffffffffffffffffffffff169050600073ffffffffffffffffffffffffffffffffffffffff168173ffffffffffffffffffffffffffffffffffffffff1614156115a0576040517f08c379a00000000000000000000000000000000000000000000000000000000081526004016115979061512f565b60405180910390fd5b80915050919050565b6000601a54905090565b60165481565b60008073ffffffffffffffffffffffffffffffffffffffff168273ffffffffffffffffffffffffffffffffffffffff16141561162a576040517f08c379a0000000000000000000000000000000000000000000000000000000008152600401611621906151c1565b60405180910390fd5b600360008373ffffffffffffffffffffffffffffffffffffffff1673ffffffffffffffffffffffffffffffffffffffff168152602001908152602001600020549050919050565b6116796129b7565b73ffffffffffffffffffffffffffffffffffffffff16611697611add565b73ffffffffffffffffffffffffffffffffffffffff16146116ed576040517f08c379a00000000000000000000000000000000000000000000000000000000081526004016116e490614c80565b60405180910390fd5b6116f76000612dbd565b565b601060009054906101000a900473ffffffffffffffffffffffffffffffffffffffff1681565b6002600c541415611765576040517f08c379a000000000000000000000000000000000000000000000000000000000815260040161175c90614e10565b60405180910390fd5b6002600c819055506000601460008481526020019081526020016000206000015414156117c7576040517f08c379a00000000000000000000000000000000000000000000000000000000081526004016117be9061522d565b60405180910390fd5b600015156014600084815260200190815260200160002060020160009054906101000a900460ff16151514611831576040517f08c379a000000000000000000000000000000000000000000000000000000000815260040161182890615299565b60405180910390fd5b60175460146000848152602001908152602001600020600301544261185691906152e8565b1115611897576040517f08c379a000000000000000000000000000000000000000000000000000000000815260040161188e90615368565b60405180910390fd5b3373ffffffffffffffffffffffffffffffffffffffff166118cd60146000858152602001908152602001600020600001546114f7565b73ffffffffffffffffffffffffffffffffffffffff1614611923576040517f08c379a000000000000000000000000000000000000000000000000000000000815260040161191a906153d4565b60405180910390fd5b60006014600084815260200190815260200160002060010154905047811115611981576040517f08c379a000000000000000000000000000000000000000000000000000000000815260040161197890615440565b60405180910390fd5b60016014600085815260200190815260200160002060020160006101000a81548160ff02191690831515021790555060008273ffffffffffffffffffffffffffffffffffffffff16826040516119d690614f7b565b60006040518083038185875af1925050503d8060008114611a13576040519150601f19603f3d011682016040523d82523d6000602084013e611a18565b606091505b5050905080611a5c576040517f08c379a0000000000000000000000000000000000000000000000000000000008152600401611a5390614fdc565b60405180910390fd5b50506001600c819055505050565b60005b84849050811015611ad657611ac333868684818110611a8f57611a8e61508e565b5b9050602002016020810190611aa491906142dc565b858585818110611ab757611ab661508e565b5b90506020020135612b56565b8080611ace90615460565b915050611a6d565b5050505050565b6000600b60009054906101000a900473ffffffffffffffffffffffffffffffffffffffff16905090565b606060018054611b1690614a4c565b80601f0160208091040260200160405190810160405280929190818152602001828054611b4290614a4c565b8015611b8f5780601f10611b6457610100808354040283529160200191611b8f565b820191906000526020600020905b815481529060010190602001808311611b7257829003601f168201915b5050505050905090565b60006014600083815260200190815260200160002060020160009054906101000a900460ff169050919050565b611bce6129b7565b73ffffffffffffffffffffffffffffffffffffffff16611bec611add565b73ffffffffffffffffffffffffffffffffffffffff1614611c42576040517f08c379a0000000000000000000000000000000000000000000000000000000008152600401611c3990614c80565b60405180910390fd5b80600e60006101000a81548173ffffffffffffffffffffffffffffffffffffffff021916908373ffffffffffffffffffffffffffffffffffffffff16021790555050565b611c98611c916129b7565b8383612e83565b5050565b60146020528060005260406000206000915090508060000154908060010154908060020160009054906101000a900460ff16908060030154905084565b6000606480601554611ceb91906154a9565b611cf59190615503565b611cff600d612ff0565b1115611d40576040517f08c379a0000000000000000000000000000000000000000000000000000000008152600401611d37906155a5565b60405180910390fd5b6000601a549050611d52601a54611ef3565b6000601160009054906101000a900473ffffffffffffffffffffffffffffffffffffffff1673ffffffffffffffffffffffffffffffffffffffff1663dc5ca3b133866040518363ffffffff1660e01b8152600401611db19291906155c5565b6020604051808303816000875af1158015611dd0573d6000803e3d6000fd5b505050506040513d601f19601f82011682018060405250810190611df4919061560a565b9050601060009054906101000a900473ffffffffffffffffffffffffffffffffffffffff1673ffffffffffffffffffffffffffffffffffffffff168173ffffffffffffffffffffffffffffffffffffffff1614611ebd576064600a83611e5a91906154a9565b611e649190615666565b915081601360008373ffffffffffffffffffffffffffffffffffffffff1673ffffffffffffffffffffffffffffffffffffffff1681526020019081526020016000206000828254611eb59190615503565b925050819055505b611ec682612ffe565b611ed0600d61315c565b6000611edc600d612ff0565b9050611ee83382613172565b809350505050919050565b803414611eff57600080fd5b50565b611f0a613fbe565b60405180604001604052806014600085815260200190815260200160002060000154815260200160146000858152602001908152602001600020600101548152509050919050565b611f63611f5d6129b7565b83612a78565b611fa2576040517f08c379a0000000000000000000000000000000000000000000000000000000008152600401611f9990614d12565b60405180910390fd5b611fae84848484613190565b50505050565b606480601554611fc491906154a9565b611fce9190615503565b81611fd9600d612ff0565b611fe39190615503565b1115612024576040517f08c379a000000000000000000000000000000000000000000000000000000000815260040161201b906155a5565b60405180910390fd5b600081601a5461203491906154a9565b905061203f81611ef3565b6000601160009054906101000a900473ffffffffffffffffffffffffffffffffffffffff1673ffffffffffffffffffffffffffffffffffffffff1663dc5ca3b133866040518363ffffffff1660e01b815260040161209e9291906155c5565b6020604051808303816000875af11580156120bd573d6000803e3d6000fd5b505050506040513d601f19601f820116820180604052508101906120e1919061560a565b9050601060009054906101000a900473ffffffffffffffffffffffffffffffffffffffff1673ffffffffffffffffffffffffffffffffffffffff168173ffffffffffffffffffffffffffffffffffffffff16146121fa576064600a8361214791906154a9565b6121519190615666565b915081601360008373ffffffffffffffffffffffffffffffffffffffff1673ffffffffffffffffffffffffffffffffffffffff16815260200190815260200160002060008282546121a29190615503565b925050819055503373ffffffffffffffffffffffffffffffffffffffff167fecc6d60c0384445a3b283c3c74fd5c8af58abab2411358b87ff308dd8ffae8d782846040516121f1929190615697565b60405180910390a25b61220382612ffe565b60005b8381101561224457612218600d61315c565b6000612224600d612ff0565b90506122303382613172565b50808061223c90615460565b915050612206565b5050505050565b6122536129b7565b73ffffffffffffffffffffffffffffffffffffffff16612271611add565b73ffffffffffffffffffffffffffffffffffffffff16146122c7576040517f08c379a00000000000000000000000000000000000000000000000000000000081526004016122be90614c80565b60405180910390fd5b8060178190555050565b60606122dc826131ec565b9050919050565b6000601360008373ffffffffffffffffffffffffffffffffffffffff1673ffffffffffffffffffffffffffffffffffffffff168152602001908152602001600020549050919050565b6019805461233990614a4c565b80601f016020809104026020016040519081016040528092919081815260200182805461236590614a4c565b80156123b25780601f10612387576101008083540402835291602001916123b2565b820191906000526020600020905b81548152906001019060200180831161239557829003601f168201915b505050505081565b60185481565b60175481565b6000600560008473ffffffffffffffffffffffffffffffffffffffff1673ffffffffffffffffffffffffffffffffffffffff16815260200190815260200160002060008373ffffffffffffffffffffffffffffffffffffffff1673ffffffffffffffffffffffffffffffffffffffff16815260200190815260200160002060009054906101000a900460ff16905092915050565b6124626129b7565b73ffffffffffffffffffffffffffffffffffffffff16612480611add565b73ffffffffffffffffffffffffffffffffffffffff16146124d6576040517f08c379a00000000000000000000000000000000000000000000000000000000081526004016124cd90614c80565b60405180910390fd5b6000601260009054906101000a900473ffffffffffffffffffffffffffffffffffffffff1673ffffffffffffffffffffffffffffffffffffffff1663698245e0601554612523600d612ff0565b6018546040518463ffffffff1660e01b8152600401612544939291906156c0565b602060405180830381865afa158015612561573d6000803e3d6000fd5b505050506040513d601f19601f820116820180604052508101906125859190614e45565b905061258f613fe0565b601654816020018181525050818160000181815250504281606001818152505080601460006015548152602001908152602001600020600082015181600001556020820151816001015560408201518160020160006101000a81548160ff021916908315150217905550606082015181600301559050507ff03bc5ec136d47cd07cb9dccdd65bb97745aa45ca6c74dd3348e69f354efc97b6015548360165460405161263d939291906156c0565b60405180910390a160006016819055506001601560008282546126609190615503565b92505081905550612671600d612ff0565b6018819055505050565b6126836129b7565b73ffffffffffffffffffffffffffffffffffffffff166126a1611add565b73ffffffffffffffffffffffffffffffffffffffff16146126f7576040517f08c379a00000000000000000000000000000000000000000000000000000000081526004016126ee90614c80565b60405180910390fd5b80601160006101000a81548173ffffffffffffffffffffffffffffffffffffffff021916908373ffffffffffffffffffffffffffffffffffffffff16021790555050565b6127436129b7565b73ffffffffffffffffffffffffffffffffffffffff16612761611add565b73ffffffffffffffffffffffffffffffffffffffff16146127b7576040517f08c379a00000000000000000000000000000000000000000000000000000000081526004016127ae90614c80565b60405180910390fd5b600073ffffffffffffffffffffffffffffffffffffffff168173ffffffffffffffffffffffffffffffffffffffff161415612827576040517f08c379a000000000000000000000000000000000000000000000000000000000815260040161281e90615769565b60405180910390fd5b61283081612dbd565b50565b61283b6129b7565b73ffffffffffffffffffffffffffffffffffffffff16612859611add565b73ffffffffffffffffffffffffffffffffffffffff16146128af576040517f08c379a00000000000000000000000000000000000000000000000000000000081526004016128a690614c80565b60405180910390fd5b80601a8190555050565b60136020528060005260406000206000915090505481565b60007f780e9d63000000000000000000000000000000000000000000000000000000007bffffffffffffffffffffffffffffffffffffffffffffffffffffffff1916827bffffffffffffffffffffffffffffffffffffffffffffffffffffffff1916148061294457506129438261333e565b5b9050919050565b60008073ffffffffffffffffffffffffffffffffffffffff166002600084815260200190815260200160002060009054906101000a900473ffffffffffffffffffffffffffffffffffffffff1673ffffffffffffffffffffffffffffffffffffffff1614159050919050565b600033905090565b816004600083815260200190815260200160002060006101000a81548173ffffffffffffffffffffffffffffffffffffffff021916908373ffffffffffffffffffffffffffffffffffffffff160217905550808273ffffffffffffffffffffffffffffffffffffffff16612a32836114f7565b73ffffffffffffffffffffffffffffffffffffffff167f8c5be1e5ebec7d5bd14f71427d1e84f3dd0314c0f7b2291e5b200ac8c7c3b92560405160405180910390a45050565b6000612a838261294b565b612ac2576040517f08c379a0000000000000000000000000000000000000000000000000000000008152600401612ab9906157fb565b60405180910390fd5b6000612acd836114f7565b90508073ffffffffffffffffffffffffffffffffffffffff168473ffffffffffffffffffffffffffffffffffffffff161480612b3c57508373ffffffffffffffffffffffffffffffffffffffff16612b2484610bd8565b73ffffffffffffffffffffffffffffffffffffffff16145b80612b4d5750612b4c81856123c6565b5b91505092915050565b8273ffffffffffffffffffffffffffffffffffffffff16612b76826114f7565b73ffffffffffffffffffffffffffffffffffffffff1614612bcc576040517f08c379a0000000000000000000000000000000000000000000000000000000008152600401612bc39061588d565b60405180910390fd5b600073ffffffffffffffffffffffffffffffffffffffff168273ffffffffffffffffffffffffffffffffffffffff161415612c3c576040517f08c379a0000000000000000000000000000000000000000000000000000000008152600401612c339061591f565b60405180910390fd5b612c47838383613420565b612c526000826129bf565b6001600360008573ffffffffffffffffffffffffffffffffffffffff1673ffffffffffffffffffffffffffffffffffffffff1681526020019081526020016000206000828254612ca291906152e8565b925050819055506001600360008473ffffffffffffffffffffffffffffffffffffffff1673ffffffffffffffffffffffffffffffffffffffff1681526020019081526020016000206000828254612cf99190615503565b92505081905550816002600083815260200190815260200160002060006101000a81548173ffffffffffffffffffffffffffffffffffffffff021916908373ffffffffffffffffffffffffffffffffffffffff160217905550808273ffffffffffffffffffffffffffffffffffffffff168473ffffffffffffffffffffffffffffffffffffffff167fddf252ad1be2c89b69c2b068fc378daa952ba7f163c4a11628f55a4df523b3ef60405160405180910390a4612db8838383613430565b505050565b6000600b60009054906101000a900473ffffffffffffffffffffffffffffffffffffffff16905081600b60006101000a81548173ffffffffffffffffffffffffffffffffffffffff021916908373ffffffffffffffffffffffffffffffffffffffff1602179055508173ffffffffffffffffffffffffffffffffffffffff168173ffffffffffffffffffffffffffffffffffffffff167f8be0079c531659141344cd1fd0a4f28419497f9722a3daafe3b4186f6b6457e060405160405180910390a35050565b8173ffffffffffffffffffffffffffffffffffffffff168373ffffffffffffffffffffffffffffffffffffffff161415612ef2576040517f08c379a0000000000000000000000000000000000000000000000000000000008152600401612ee99061598b565b60405180910390fd5b80600560008573ffffffffffffffffffffffffffffffffffffffff1673ffffffffffffffffffffffffffffffffffffffff16815260200190815260200160002060008473ffffffffffffffffffffffffffffffffffffffff1673ffffffffffffffffffffffffffffffffffffffff16815260200190815260200160002060006101000a81548160ff0219169083151502179055508173ffffffffffffffffffffffffffffffffffffffff168373ffffffffffffffffffffffffffffffffffffffff167f17307eab39ab6107e8899845ad3d59bd9653f200f220920489ca2b5937696c3183604051612fe391906140db565b60405180910390a3505050565b600081600001549050919050565b60006064600f8361300f91906154a9565b6130199190615666565b90506000606460058461302c91906154a9565b6130369190615666565b90508160136000600e60009054906101000a900473ffffffffffffffffffffffffffffffffffffffff1673ffffffffffffffffffffffffffffffffffffffff1673ffffffffffffffffffffffffffffffffffffffff16815260200190815260200160002060008282546130a99190615503565b925050819055508060136000600f60009054906101000a900473ffffffffffffffffffffffffffffffffffffffff1673ffffffffffffffffffffffffffffffffffffffff1673ffffffffffffffffffffffffffffffffffffffff16815260200190815260200160002060008282546131219190615503565b9250508190555080828461313591906152e8565b61313f91906152e8565b601660008282546131509190615503565b92505081905550505050565b6001816000016000828254019250508190555050565b61318c828260405180602001604052806000815250613435565b5050565b61319b848484612b56565b6131a784848484613490565b6131e6576040517f08c379a00000000000000000000000000000000000000000000000000000000081526004016131dd90615a1d565b60405180910390fd5b50505050565b60606131f78261294b565b613236576040517f08c379a000000000000000000000000000000000000000000000000000000000815260040161322d90615aaf565b60405180910390fd5b600060066000848152602001908152602001600020805461325690614a4c565b80601f016020809104026020016040519081016040528092919081815260200182805461328290614a4c565b80156132cf5780601f106132a4576101008083540402835291602001916132cf565b820191906000526020600020905b8154815290600101906020018083116132b257829003601f168201915b5050505050905060006132e0613618565b90506000815114156132f6578192505050613339565b60008251111561332b578082604051602001613313929190615b0b565b60405160208183030381529060405292505050613339565b613334846136aa565b925050505b919050565b60007f80ac58cd000000000000000000000000000000000000000000000000000000007bffffffffffffffffffffffffffffffffffffffffffffffffffffffff1916827bffffffffffffffffffffffffffffffffffffffffffffffffffffffff1916148061340957507f5b5e139f000000000000000000000000000000000000000000000000000000007bffffffffffffffffffffffffffffffffffffffffffffffffffffffff1916827bffffffffffffffffffffffffffffffffffffffffffffffffffffffff1916145b80613419575061341882613751565b5b9050919050565b61342b8383836137bb565b505050565b505050565b61343f83836138cf565b61344c6000848484613490565b61348b576040517f08c379a000000000000000000000000000000000000000000000000000000000815260040161348290615a1d565b60405180910390fd5b505050565b60006134b18473ffffffffffffffffffffffffffffffffffffffff16613aa9565b1561360b578373ffffffffffffffffffffffffffffffffffffffff1663150b7a026134da6129b7565b8786866040518563ffffffff1660e01b81526004016134fc9493929190615b84565b6020604051808303816000875af192505050801561353857506040513d601f19601f820116820180604052508101906135359190615be5565b60015b6135bb573d8060008114613568576040519150601f19603f3d011682016040523d82523d6000602084013e61356d565b606091505b506000815114156135b3576040517f08c379a00000000000000000000000000000000000000000000000000000000081526004016135aa90615a1d565b60405180910390fd5b805181602001fd5b63150b7a0260e01b7bffffffffffffffffffffffffffffffffffffffffffffffffffffffff1916817bffffffffffffffffffffffffffffffffffffffffffffffffffffffff191614915050613610565b600190505b949350505050565b60606019805461362790614a4c565b80601f016020809104026020016040519081016040528092919081815260200182805461365390614a4c565b80156136a05780601f10613675576101008083540402835291602001916136a0565b820191906000526020600020905b81548152906001019060200180831161368357829003601f168201915b5050505050905090565b60606136b58261294b565b6136f4576040517f08c379a00000000000000000000000000000000000000000000000000000000081526004016136eb90615c84565b60405180910390fd5b60006136fe613618565b9050600081511161371e5760405180602001604052806000815250613749565b8061372884613acc565b604051602001613739929190615b0b565b6040516020818303038152906040525b915050919050565b60007f01ffc9a7000000000000000000000000000000000000000000000000000000007bffffffffffffffffffffffffffffffffffffffffffffffffffffffff1916827bffffffffffffffffffffffffffffffffffffffffffffffffffffffff1916149050919050565b6137c6838383613c2d565b600073ffffffffffffffffffffffffffffffffffffffff168373ffffffffffffffffffffffffffffffffffffffff1614156138095761380481613c32565b613848565b8173ffffffffffffffffffffffffffffffffffffffff168373ffffffffffffffffffffffffffffffffffffffff1614613847576138468382613c7b565b5b5b600073ffffffffffffffffffffffffffffffffffffffff168273ffffffffffffffffffffffffffffffffffffffff16141561388b5761388681613de8565b6138ca565b8273ffffffffffffffffffffffffffffffffffffffff168273ffffffffffffffffffffffffffffffffffffffff16146138c9576138c88282613eb9565b5b5b505050565b600073ffffffffffffffffffffffffffffffffffffffff168273ffffffffffffffffffffffffffffffffffffffff16141561393f576040517f08c379a000000000000000000000000000000000000000000000000000000000815260040161393690615cf0565b60405180910390fd5b6139488161294b565b15613988576040517f08c379a000000000000000000000000000000000000000000000000000000000815260040161397f90615d5c565b60405180910390fd5b61399460008383613420565b6001600360008473ffffffffffffffffffffffffffffffffffffffff1673ffffffffffffffffffffffffffffffffffffffff16815260200190815260200160002060008282546139e49190615503565b92505081905550816002600083815260200190815260200160002060006101000a81548173ffffffffffffffffffffffffffffffffffffffff021916908373ffffffffffffffffffffffffffffffffffffffff160217905550808273ffffffffffffffffffffffffffffffffffffffff16600073ffffffffffffffffffffffffffffffffffffffff167fddf252ad1be2c89b69c2b068fc378daa952ba7f163c4a11628f55a4df523b3ef60405160405180910390a4613aa560008383613430565b5050565b6000808273ffffffffffffffffffffffffffffffffffffffff163b119050919050565b60606000821415613b14576040518060400160405280600181526020017f30000000000000000000000000000000000000000000000000000000000000008152509050613c28565b600082905060005b60008214613b46578080613b2f90615460565b915050600a82613b3f9190615666565b9150613b1c565b60008167ffffffffffffffff811115613b6257613b616143fb565b5b6040519080825280601f01601f191660200182016040528015613b945781602001600182028036833780820191505090505b5090505b60008514613c2157600182613bad91906152e8565b9150600a85613bbc9190615d7c565b6030613bc89190615503565b60f81b818381518110613bde57613bdd61508e565b5b60200101907effffffffffffffffffffffffffffffffffffffffffffffffffffffffffffff1916908160001a905350600a85613c1a9190615666565b9450613b98565b8093505050505b919050565b505050565b600980549050600a600083815260200190815260200160002081905550600981908060018154018082558091505060019003906000526020600020016000909190919091505550565b60006001613c88846115b9565b613c9291906152e8565b9050600060086000848152602001908152602001600020549050818114613d77576000600760008673ffffffffffffffffffffffffffffffffffffffff1673ffffffffffffffffffffffffffffffffffffffff168152602001908152602001600020600084815260200190815260200160002054905080600760008773ffffffffffffffffffffffffffffffffffffffff1673ffffffffffffffffffffffffffffffffffffffff168152602001908152602001600020600084815260200190815260200160002081905550816008600083815260200190815260200160002081905550505b6008600084815260200190815260200160002060009055600760008573ffffffffffffffffffffffffffffffffffffffff1673ffffffffffffffffffffffffffffffffffffffff16815260200190815260200160002060008381526020019081526020016000206000905550505050565b60006001600980549050613dfc91906152e8565b90506000600a6000848152602001908152602001600020549050600060098381548110613e2c57613e2b61508e565b5b906000526020600020015490508060098381548110613e4e57613e4d61508e565b5b906000526020600020018190555081600a600083815260200190815260200160002081905550600a6000858152602001908152602001600020600090556009805480613e9d57613e9c615dad565b5b6001900381819060005260206000200160009055905550505050565b6000613ec4836115b9565b905081600760008573ffffffffffffffffffffffffffffffffffffffff1673ffffffffffffffffffffffffffffffffffffffff168152602001908152602001600020600083815260200190815260200160002081905550806008600084815260200190815260200160002081905550505050565b828054613f4490614a4c565b90600052602060002090601f016020900481019282613f665760008555613fad565b82601f10613f7f57805160ff1916838001178555613fad565b82800160010185558215613fad579182015b82811115613fac578251825591602001919060010190613f91565b5b509050613fba919061400a565b5090565b6040518060400160405280600290602082028036833780820191505090505090565b60405180608001604052806000815260200160008152602001600015158152602001600081525090565b5b8082111561402357600081600090555060010161400b565b5090565b6000604051905090565b600080fd5b600080fd5b60007fffffffff0000000000000000000000000000000000000000000000000000000082169050919050565b6140708161403b565b811461407b57600080fd5b50565b60008135905061408d81614067565b92915050565b6000602082840312156140a9576140a8614031565b5b60006140b78482850161407e565b91505092915050565b60008115159050919050565b6140d5816140c0565b82525050565b60006020820190506140f060008301846140cc565b92915050565b600081519050919050565b600082825260208201905092915050565b60005b83811015614130578082015181840152602081019050614115565b8381111561413f576000848401525b50505050565b6000601f19601f8301169050919050565b6000614161826140f6565b61416b8185614101565b935061417b818560208601614112565b61418481614145565b840191505092915050565b600060208201905081810360008301526141a98184614156565b905092915050565b6000819050919050565b6141c4816141b1565b81146141cf57600080fd5b50565b6000813590506141e1816141bb565b92915050565b6000602082840312156141fd576141fc614031565b5b600061420b848285016141d2565b91505092915050565b600073ffffffffffffffffffffffffffffffffffffffff82169050919050565b600061423f82614214565b9050919050565b61424f81614234565b82525050565b600060208201905061426a6000830184614246565b92915050565b61427981614234565b811461428457600080fd5b50565b60008135905061429681614270565b92915050565b600080604083850312156142b3576142b2614031565b5b60006142c185828601614287565b92505060206142d2858286016141d2565b9150509250929050565b6000602082840312156142f2576142f1614031565b5b600061430084828501614287565b91505092915050565b614312816141b1565b82525050565b600060208201905061432d6000830184614309565b92915050565b60008060006060848603121561434c5761434b614031565b5b600061435a86828701614287565b935050602061436b86828701614287565b925050604061437c868287016141d2565b9150509250925092565b600061439182614214565b9050919050565b6143a181614386565b81146143ac57600080fd5b50565b6000813590506143be81614398565b92915050565b6000602082840312156143da576143d9614031565b5b60006143e8848285016143af565b91505092915050565b600080fd5b600080fd5b7f4e487b7100000000000000000000000000000000000000000000000000000000600052604160045260246000fd5b61443382614145565b810181811067ffffffffffffffff82111715614452576144516143fb565b5b80604052505050565b6000614465614027565b9050614471828261442a565b919050565b600067ffffffffffffffff821115614491576144906143fb565b5b61449a82614145565b9050602081019050919050565b82818337600083830152505050565b60006144c96144c484614476565b61445b565b9050828152602081018484840111156144e5576144e46143f6565b5b6144f08482856144a7565b509392505050565b600082601f83011261450d5761450c6143f1565b5b813561451d8482602086016144b6565b91505092915050565b60006020828403121561453c5761453b614031565b5b600082013567ffffffffffffffff81111561455a57614559614036565b5b614566848285016144f8565b91505092915050565b6000806040838503121561458657614585614031565b5b6000614594858286016141d2565b92505060206145a5858286016143af565b9150509250929050565b600080fd5b600080fd5b60008083601f8401126145cf576145ce6143f1565b5b8235905067ffffffffffffffff8111156145ec576145eb6145af565b5b602083019150836020820283011115614608576146076145b4565b5b9250929050565b60008083601f840112614625576146246143f1565b5b8235905067ffffffffffffffff811115614642576146416145af565b5b60208301915083602082028301111561465e5761465d6145b4565b5b9250929050565b6000806000806040858703121561467f5761467e614031565b5b600085013567ffffffffffffffff81111561469d5761469c614036565b5b6146a9878288016145b9565b9450945050602085013567ffffffffffffffff8111156146cc576146cb614036565b5b6146d88782880161460f565b925092505092959194509250565b6146ef816140c0565b81146146fa57600080fd5b50565b60008135905061470c816146e6565b92915050565b6000806040838503121561472957614728614031565b5b600061473785828601614287565b9250506020614748858286016146fd565b9150509250929050565b60006080820190506147676000830187614309565b6147746020830186614309565b61478160408301856140cc565b61478e6060830184614309565b95945050505050565b600060029050919050565b600081905092915050565b6000819050919050565b6147c0816141b1565b82525050565b60006147d283836147b7565b60208301905092915050565b6000602082019050919050565b6147f481614797565b6147fe81846147a2565b9250614809826147ad565b8060005b8381101561483a57815161482187826147c6565b965061482c836147de565b92505060018101905061480d565b505050505050565b600060408201905061485760008301846147eb565b92915050565b600067ffffffffffffffff821115614878576148776143fb565b5b61488182614145565b9050602081019050919050565b60006148a161489c8461485d565b61445b565b9050828152602081018484840111156148bd576148bc6143f6565b5b6148c88482856144a7565b509392505050565b600082601f8301126148e5576148e46143f1565b5b81356148f584826020860161488e565b91505092915050565b6000806000806080858703121561491857614917614031565b5b600061492687828801614287565b945050602061493787828801614287565b9350506040614948878288016141d2565b925050606085013567ffffffffffffffff81111561496957614968614036565b5b614975878288016148d0565b91505092959194509250565b6000806040838503121561499857614997614031565b5b600083013567ffffffffffffffff8111156149b6576149b5614036565b5b6149c2858286016144f8565b92505060206149d3858286016141d2565b9150509250929050565b600080604083850312156149f4576149f3614031565b5b6000614a0285828601614287565b9250506020614a1385828601614287565b9150509250929050565b7f4e487b7100000000000000000000000000000000000000000000000000000000600052602260045260246000fd5b60006002820490506001821680614a6457607f821691505b60208210811415614a7857614a77614a1d565b5b50919050565b7f4552433732313a20617070726f76656420717565727920666f72206e6f6e657860008201527f697374656e7420746f6b656e0000000000000000000000000000000000000000602082015250565b6000614ada602c83614101565b9150614ae582614a7e565b604082019050919050565b60006020820190508181036000830152614b0981614acd565b9050919050565b7f4552433732313a20617070726f76616c20746f2063757272656e74206f776e6560008201527f7200000000000000000000000000000000000000000000000000000000000000602082015250565b6000614b6c602183614101565b9150614b7782614b10565b604082019050919050565b60006020820190508181036000830152614b9b81614b5f565b9050919050565b7f4552433732313a20617070726f76652063616c6c6572206973206e6f74206f7760008201527f6e6572206e6f7220617070726f76656420666f7220616c6c0000000000000000602082015250565b6000614bfe603883614101565b9150614c0982614ba2565b604082019050919050565b60006020820190508181036000830152614c2d81614bf1565b9050919050565b7f4f776e61626c653a2063616c6c6572206973206e6f7420746865206f776e6572600082015250565b6000614c6a602083614101565b9150614c7582614c34565b602082019050919050565b60006020820190508181036000830152614c9981614c5d565b9050919050565b7f4552433732313a207472616e736665722063616c6c6572206973206e6f74206f60008201527f776e6572206e6f7220617070726f766564000000000000000000000000000000602082015250565b6000614cfc603183614101565b9150614d0782614ca0565b604082019050919050565b60006020820190508181036000830152614d2b81614cef565b9050919050565b7f455243373231456e756d657261626c653a206f776e657220696e646578206f7560008201527f74206f6620626f756e6473000000000000000000000000000000000000000000602082015250565b6000614d8e602b83614101565b9150614d9982614d32565b604082019050919050565b60006020820190508181036000830152614dbd81614d81565b9050919050565b7f5265656e7472616e637947756172643a207265656e7472616e742063616c6c00600082015250565b6000614dfa601f83614101565b9150614e0582614dc4565b602082019050919050565b60006020820190508181036000830152614e2981614ded565b9050919050565b600081519050614e3f816141bb565b92915050565b600060208284031215614e5b57614e5a614031565b5b6000614e6984828501614e30565b91505092915050565b7f496e76697465206174206c656173742031300000000000000000000000000000600082015250565b6000614ea8601283614101565b9150614eb382614e72565b602082019050919050565b60006020820190508181036000830152614ed781614e9b565b9050919050565b7f4e6f7420656e6f7567682062616c616e63650000000000000000000000000000600082015250565b6000614f14601283614101565b9150614f1f82614ede565b602082019050919050565b60006020820190508181036000830152614f4381614f07565b9050919050565b600081905092915050565b50565b6000614f65600083614f4a565b9150614f7082614f55565b600082019050919050565b6000614f8682614f58565b9150819050919050565b7f4661696c656420746f2073656e64204574686572000000000000000000000000600082015250565b6000614fc6601483614101565b9150614fd182614f90565b602082019050919050565b60006020820190508181036000830152614ff581614fb9565b9050919050565b7f455243373231456e756d657261626c653a20676c6f62616c20696e646578206f60008201527f7574206f6620626f756e64730000000000000000000000000000000000000000602082015250565b6000615058602c83614101565b915061506382614ffc565b604082019050919050565b600060208201905081810360008301526150878161504b565b9050919050565b7f4e487b7100000000000000000000000000000000000000000000000000000000600052603260045260246000fd5b7f4552433732313a206f776e657220717565727920666f72206e6f6e657869737460008201527f656e7420746f6b656e0000000000000000000000000000000000000000000000602082015250565b6000615119602983614101565b9150615124826150bd565b604082019050919050565b600060208201905081810360008301526151488161510c565b9050919050565b7f4552433732313a2062616c616e636520717565727920666f7220746865207a6560008201527f726f206164647265737300000000000000000000000000000000000000000000602082015250565b60006151ab602a83614101565b91506151b68261514f565b604082019050919050565b600060208201905081810360008301526151da8161519e565b9050919050565b7f6e6f742064726f70207468697320726f756e6400000000000000000000000000600082015250565b6000615217601383614101565b9150615222826151e1565b602082019050919050565b600060208201905081810360008301526152468161520a565b9050919050565b7f616c726561647920776974686472657700000000000000000000000000000000600082015250565b6000615283601083614101565b915061528e8261524d565b602082019050919050565b600060208201905081810360008301526152b281615276565b9050919050565b7f4e487b7100000000000000000000000000000000000000000000000000000000600052601160045260246000fd5b60006152f3826141b1565b91506152fe836141b1565b925082821015615311576153106152b9565b5b828203905092915050565b7f77697468647261772074696d6520657870697265640000000000000000000000600082015250565b6000615352601583614101565b915061535d8261531c565b602082019050919050565b6000602082019050818103600083015261538181615345565b9050919050565b7f6e6f742077696e00000000000000000000000000000000000000000000000000600082015250565b60006153be600783614101565b91506153c982615388565b602082019050919050565b600060208201905081810360008301526153ed816153b1565b9050919050565b7f6e6f7420656e6f7567682062616c616e63650000000000000000000000000000600082015250565b600061542a601283614101565b9150615435826153f4565b602082019050919050565b600060208201905081810360008301526154598161541d565b9050919050565b600061546b826141b1565b91507fffffffffffffffffffffffffffffffffffffffffffffffffffffffffffffffff82141561549e5761549d6152b9565b5b600182019050919050565b60006154b4826141b1565b91506154bf836141b1565b9250817fffffffffffffffffffffffffffffffffffffffffffffffffffffffffffffffff04831182151516156154f8576154f76152b9565b5b828202905092915050565b600061550e826141b1565b9150615519836141b1565b9250827fffffffffffffffffffffffffffffffffffffffffffffffffffffffffffffffff0382111561554e5761554d6152b9565b5b828201905092915050565b7f726f756e64206a6f696e206d6178000000000000000000000000000000000000600082015250565b600061558f600e83614101565b915061559a82615559565b602082019050919050565b600060208201905081810360008301526155be81615582565b9050919050565b60006040820190506155da6000830185614246565b81810360208301526155ec8184614156565b90509392505050565b60008151905061560481614270565b92915050565b6000602082840312156156205761561f614031565b5b600061562e848285016155f5565b91505092915050565b7f4e487b7100000000000000000000000000000000000000000000000000000000600052601260045260246000fd5b6000615671826141b1565b915061567c836141b1565b92508261568c5761568b615637565b5b828204905092915050565b60006040820190506156ac6000830185614246565b6156b96020830184614309565b9392505050565b60006060820190506156d56000830186614309565b6156e26020830185614309565b6156ef6040830184614309565b949350505050565b7f4f776e61626c653a206e6577206f776e657220697320746865207a65726f206160008201527f6464726573730000000000000000000000000000000000000000000000000000602082015250565b6000615753602683614101565b915061575e826156f7565b604082019050919050565b6000602082019050818103600083015261578281615746565b9050919050565b7f4552433732313a206f70657261746f7220717565727920666f72206e6f6e657860008201527f697374656e7420746f6b656e0000000000000000000000000000000000000000602082015250565b60006157e5602c83614101565b91506157f082615789565b604082019050919050565b60006020820190508181036000830152615814816157d8565b9050919050565b7f4552433732313a207472616e736665722066726f6d20696e636f72726563742060008201527f6f776e6572000000000000000000000000000000000000000000000000000000602082015250565b6000615877602583614101565b91506158828261581b565b604082019050919050565b600060208201905081810360008301526158a68161586a565b9050919050565b7f4552433732313a207472616e7366657220746f20746865207a65726f2061646460008201527f7265737300000000000000000000000000000000000000000000000000000000602082015250565b6000615909602483614101565b9150615914826158ad565b604082019050919050565b60006020820190508181036000830152615938816158fc565b9050919050565b7f4552433732313a20617070726f766520746f2063616c6c657200000000000000600082015250565b6000615975601983614101565b91506159808261593f565b602082019050919050565b600060208201905081810360008301526159a481615968565b9050919050565b7f4552433732313a207472616e7366657220746f206e6f6e20455243373231526560008201527f63656976657220696d706c656d656e7465720000000000000000000000000000602082015250565b6000615a07603283614101565b9150615a12826159ab565b604082019050919050565b60006020820190508181036000830152615a36816159fa565b9050919050565b7f45524337323155524953746f726167653a2055524920717565727920666f722060008201527f6e6f6e6578697374656e7420746f6b656e000000000000000000000000000000602082015250565b6000615a99603183614101565b9150615aa482615a3d565b604082019050919050565b60006020820190508181036000830152615ac881615a8c565b9050919050565b600081905092915050565b6000615ae5826140f6565b615aef8185615acf565b9350615aff818560208601614112565b80840191505092915050565b6000615b178285615ada565b9150615b238284615ada565b91508190509392505050565b600081519050919050565b600082825260208201905092915050565b6000615b5682615b2f565b615b608185615b3a565b9350615b70818560208601614112565b615b7981614145565b840191505092915050565b6000608082019050615b996000830187614246565b615ba66020830186614246565b615bb36040830185614309565b8181036060830152615bc58184615b4b565b905095945050505050565b600081519050615bdf81614067565b92915050565b600060208284031215615bfb57615bfa614031565b5b6000615c0984828501615bd0565b91505092915050565b7f4552433732314d657461646174613a2055524920717565727920666f72206e6f60008201527f6e6578697374656e7420746f6b656e0000000000000000000000000000000000602082015250565b6000615c6e602f83614101565b9150615c7982615c12565b604082019050919050565b60006020820190508181036000830152615c9d81615c61565b9050919050565b7f4552433732313a206d696e7420746f20746865207a65726f2061646472657373600082015250565b6000615cda602083614101565b9150615ce582615ca4565b602082019050919050565b60006020820190508181036000830152615d0981615ccd565b9050919050565b7f4552433732313a20746f6b656e20616c7265616479206d696e74656400000000600082015250565b6000615d46601c83614101565b9150615d5182615d10565b602082019050919050565b60006020820190508181036000830152615d7581615d39565b9050919050565b6000615d87826141b1565b9150615d92836141b1565b925082615da257615da1615637565b5b828206905092915050565b7f4e487b7100000000000000000000000000000000000000000000000000000000600052603160045260246000fdfea26469706673582212200cdc36279b0d2c401a779028d6b7647e7b09a9db940c8211b8bb8fa1ed6754a564736f6c634300080b0033",
  "immutableReferences": {},
  "source": "// SPDX-License-Identifier: MIT\npragma solidity ^0.8.0;\n\nimport \"@openzeppelin/contracts/token/ERC721/extensions/ERC721Enumerable.sol\";\nimport \"@openzeppelin/contracts/token/ERC721/extensions/ERC721URIStorage.sol\";\nimport \"@openzeppelin/contracts/utils/Counters.sol\";\nimport \"@openzeppelin/contracts/access/Ownable.sol\";\nimport \"@openzeppelin/contracts/security/ReentrancyGuard.sol\";\nimport \"./ChanceInvite.sol\";\nimport \"./ChanceDrop.sol\";\n\ncontract Chance is ERC721URIStorage, ERC721Enumerable, Ownable, ReentrancyGuard{\n    using Counters for Counters.Counter;\n    Counters.Counter private _tokenIds;\n\n    event inviteLog(address indexed _addrMint, address _addrInvite, uint256 amount);\n    event dropLog(uint256 round, uint256 winner, uint256 jackpot);\n\n    address public COMMUNITY_ADDR = 0x0000000000000000000000000000000000000001;\n    address public DEVELOP_ADDR = 0x0000000000000000000000000000000000000002;\n    address public BLACKHOLE_ADDR = 0x0000000000000000000000000000000000000000;\n    address _ChanceInvite;\n    address DROP_ADDR;\n    \n    mapping(address => uint256) public accountMap;\n\n    struct WINNER {\n        uint256 _winnerID;\n        uint256 _jackpot;\n        bool _withdraw;\n        uint256 _timestamp;\n    }\n    mapping(uint256 => WINNER) public winnerMap;\n\n    uint256 public round;\n    uint256 public jackpot;\n    uint256 public winnerTTL;\n    uint256 public lastEnd;\n    string public baseTokenURI;\n\n    constructor() ERC721(\"ChanceWIN\", \"WIN\") {\n    }\n\n    function batchTransfer(address[] calldata addressList, uint256[] calldata tokenIds) public {\n        for (uint i = 0; i < addressList.length; i++) {\n            _transfer(msg.sender, addressList[i], tokenIds[i]);\n        }\n    }\n\n    function _beforeTokenTransfer(address from, address to, uint256 tokenId)\n        internal\n        override(ERC721, ERC721Enumerable)\n    {\n        super._beforeTokenTransfer(from, to, tokenId);\n    }\n\n    function _burn(uint256 tokenId) internal onlyOwner override(ERC721, ERC721URIStorage) {\n        super._burn(tokenId);\n    }\n\n    function tokenURI(uint256 tokenId)\n        public\n        view\n        override(ERC721, ERC721URIStorage)\n        returns (string memory)\n    {\n        return super.tokenURI(tokenId);\n    }\n\n    function supportsInterface(bytes4 interfaceId)\n        public\n        view\n        override(ERC721, ERC721Enumerable)\n        returns (bool)\n    {\n        return super.supportsInterface(interfaceId);\n    }\n\n    function _baseURI() internal view virtual override returns (string memory) {\n        return baseTokenURI;\n    }\n\n    function setBaseURI(string memory uri) public virtual onlyOwner {\n        baseTokenURI = uri;\n    }\n\n    function setCommunityAddr(address _addr) public onlyOwner {\n        COMMUNITY_ADDR = _addr;\n    }\n\n    function setDevelopAddr(address _addr) public onlyOwner {\n        DEVELOP_ADDR = _addr;\n    }\n\n    function setChanceInvite(address addr) public onlyOwner {\n        _ChanceInvite = addr;\n    }\n\n    function setWinnerTTL(uint256 _t) public onlyOwner {\n        winnerTTL = _t;\n    }\n\n    uint256 private _mintPrice;\n\n    function mintPrice() public view returns (uint256) {\n        return _mintPrice;\n    }\n\n    function setMintPrice(uint256 price) public onlyOwner {\n        _mintPrice = price;\n    }\n\n    function deposit(uint256 amount) payable public {\n        require(msg.value == amount);\n    }\n\n    function getBalance() public view returns (uint256) {\n        return address(this).balance;\n    }\n\n    function allotAmount(uint256 amount) private {\n       // msg.sender transfer to community addr _mintPrice * 0.15;\n       // msg.sender transfer to develop team addr _mintPrice * 0.05;\n       // msg.sender deposit _mintPrice * 0.8;\n       uint256 community_amount = amount * 15 / 100;\n       uint256 develop_amount = amount * 5 / 100;\n       accountMap[COMMUNITY_ADDR] += community_amount;\n       accountMap[DEVELOP_ADDR] += develop_amount;\n       jackpot += amount - community_amount - develop_amount;\n    }\n\n    function setDropContract(address addr) public onlyOwner {\n        DROP_ADDR = addr;\n    }\n\n    function dropChanceWinner() public onlyOwner {\n        uint256 winner_id = ChanceDrop(DROP_ADDR).drop_winner_token_id(round, _tokenIds.current(), lastEnd);\n\n        WINNER memory winner;\n        winner._jackpot = jackpot;\n        winner._winnerID = winner_id;\n        winner._timestamp = block.timestamp;\n        winnerMap[round] = winner;\n        emit dropLog(round, winner_id, jackpot);\n\n        jackpot = 0;\n        round += 1;\n        lastEnd = _tokenIds.current();\n    }\n\n    function mintWIN(string memory _inviteCode) public payable returns (uint256) {\n        require(_tokenIds.current() <= round * 100 + 100, \"round join max\");\n        uint amount = _mintPrice;\n        deposit(_mintPrice);\n\n        address inviteAddr = ChanceInvite(_ChanceInvite).inviteParty(msg.sender, _inviteCode);\n        if (inviteAddr != BLACKHOLE_ADDR) {\n            amount = amount * 10 / 100;\n            accountMap[inviteAddr] += amount;\n        }\n\n        allotAmount(amount);\n\n        _tokenIds.increment();\n        uint256 tokenId = _tokenIds.current();\n        _safeMint(msg.sender, tokenId);\n\n        return tokenId;\n    }\n\n    function batchMintWIN(string memory _inviteCode, uint256 _count) public payable {\n        require(_tokenIds.current() + _count <= round * 100 + 100, \"round join max\"); \n        uint amount = _mintPrice * _count;\n        deposit(amount);\n\n        address inviteAddr = ChanceInvite(_ChanceInvite).inviteParty(msg.sender, _inviteCode);\n        if (inviteAddr != BLACKHOLE_ADDR) {\n            amount = amount * 10 / 100;\n            accountMap[inviteAddr] += amount;\n            emit inviteLog(msg.sender, inviteAddr, amount);\n        }\n\n        allotAmount(amount);\n        \n        for (uint i = 0; i < _count; i++) {\n            _tokenIds.increment();\n            uint256 tokenId = _tokenIds.current();\n            _safeMint(msg.sender, tokenId);\n        }\n    }\n\n    function checkAmount(address _addr) public view returns (uint256) {\n        return accountMap[_addr];\n    }\n\n    function checkWinID(uint256 _round) public view returns (uint256[2] memory){\n        return [winnerMap[_round]._winnerID, winnerMap[_round]._jackpot];\n    }\n\n    function checkWithdraw(uint256 _round) public view returns (bool){\n        return winnerMap[_round]._withdraw;\n    }\n\n    function withdrawAmount(address payable _to) public nonReentrant {\n        if (msg.sender != DEVELOP_ADDR || msg.sender != COMMUNITY_ADDR) {\n            uint256 _iCount = ChanceInvite(_ChanceInvite).getInviteCount(msg.sender);\n            require(_iCount >= 10, \"Invite at least 10\");\n        }\n        uint256 amount = accountMap[msg.sender];\n        uint contract_amount = address(this).balance;\n        require(amount <= contract_amount, \"Not enough balance\");\n        (bool success, ) = _to.call{value: amount}(\"\");\n        accountMap[msg.sender] = 0;\n        require(success, \"Failed to send Ether\");\n    }\n\n    function withdrawByWinner(uint256 _round, address payable _to) public nonReentrant {\n        require(winnerMap[_round]._winnerID != 0, \"not drop this round\" );\n        require(winnerMap[_round]._withdraw == false, \"already withdrew\" );\n        require(block.timestamp - winnerMap[_round]._timestamp <= winnerTTL, \"withdraw time expired\" );\n        require(ownerOf(winnerMap[_round]._winnerID) == msg.sender, \"not win\");\n        uint256 amount = winnerMap[_round]._jackpot;\n        require(amount <= address(this).balance, \"not enough balance\");\n        winnerMap[_round]._withdraw = true;\n        (bool success, ) = _to.call{value: amount}(\"\");\n        require(success, \"Failed to send Ether\");\n    }\n}\n",
  "sourcePath": "/Users/apple/Documents/work/chance_contract/contracts/Chance.sol",
  "compiler": {
    "name": "solc",
    "version": "0.8.11+commit.d7f03943.Emscripten.clang"
  },
  "schemaVersion": "3.4.4",
  "updatedAt": "2022-03-22T06:59:55.320Z",
  "networkType": "ethereum",
  "devdoc": {
    "kind": "dev",
    "methods": {
      "approve(address,uint256)": {
        "details": "See {IERC721-approve}."
      },
      "balanceOf(address)": {
        "details": "See {IERC721-balanceOf}."
      },
      "getApproved(uint256)": {
        "details": "See {IERC721-getApproved}."
      },
      "isApprovedForAll(address,address)": {
        "details": "See {IERC721-isApprovedForAll}."
      },
      "name()": {
        "details": "See {IERC721Metadata-name}."
      },
      "owner()": {
        "details": "Returns the address of the current owner."
      },
      "ownerOf(uint256)": {
        "details": "See {IERC721-ownerOf}."
      },
      "renounceOwnership()": {
        "details": "Leaves the contract without owner. It will not be possible to call `onlyOwner` functions anymore. Can only be called by the current owner. NOTE: Renouncing ownership will leave the contract without an owner, thereby removing any functionality that is only available to the owner."
      },
      "safeTransferFrom(address,address,uint256)": {
        "details": "See {IERC721-safeTransferFrom}."
      },
      "safeTransferFrom(address,address,uint256,bytes)": {
        "details": "See {IERC721-safeTransferFrom}."
      },
      "setApprovalForAll(address,bool)": {
        "details": "See {IERC721-setApprovalForAll}."
      },
      "symbol()": {
        "details": "See {IERC721Metadata-symbol}."
      },
      "tokenByIndex(uint256)": {
        "details": "See {IERC721Enumerable-tokenByIndex}."
      },
      "tokenOfOwnerByIndex(address,uint256)": {
        "details": "See {IERC721Enumerable-tokenOfOwnerByIndex}."
      },
      "totalSupply()": {
        "details": "See {IERC721Enumerable-totalSupply}."
      },
      "transferFrom(address,address,uint256)": {
        "details": "See {IERC721-transferFrom}."
      },
      "transferOwnership(address)": {
        "details": "Transfers ownership of the contract to a new account (`newOwner`). Can only be called by the current owner."
      }
    },
    "version": 1
  },
  "userdoc": {
    "kind": "user",
    "methods": {},
    "version": 1
  }
}