{
  "contractName": "ChanceDrop",
  "abi": [
    {
      "anonymous": false,
      "inputs": [
        {
          "indexed": true,
          "internalType": "address",
          "name": "previousOwner",
          "type": "address"
        },
        {
          "indexed": true,
          "internalType": "address",
          "name": "newOwner",
          "type": "address"
        }
      ],
      "name": "OwnershipTransferred",
      "type": "event"
    },
    {
      "inputs": [],
      "name": "owner",
      "outputs": [
        {
          "internalType": "address",
          "name": "",
          "type": "address"
        }
      ],
      "stateMutability": "view",
      "type": "function",
      "constant": true
    },
    {
      "inputs": [],
      "name": "renounceOwnership",
      "outputs": [],
      "stateMutability": "nonpayable",
      "type": "function"
    },
    {
      "inputs": [
        {
          "internalType": "address",
          "name": "newOwner",
          "type": "address"
        }
      ],
      "name": "transferOwnership",
      "outputs": [],
      "stateMutability": "nonpayable",
      "type": "function"
    },
    {
      "inputs": [
        {
          "internalType": "address",
          "name": "_addr",
          "type": "address"
        }
      ],
      "name": "setVRF",
      "outputs": [],
      "stateMutability": "nonpayable",
      "type": "function"
    },
    {
      "inputs": [],
      "name": "getVRF",
      "outputs": [
        {
          "internalType": "address",
          "name": "",
          "type": "address"
        }
      ],
      "stateMutability": "view",
      "type": "function",
      "constant": true
    },
    {
      "inputs": [
        {
          "internalType": "address",
          "name": "_addr",
          "type": "address"
        }
      ],
      "name": "setDropOwner",
      "outputs": [],
      "stateMutability": "nonpayable",
      "type": "function"
    },
    {
      "inputs": [
        {
          "internalType": "uint256",
          "name": "round",
          "type": "uint256"
        },
        {
          "internalType": "uint256",
          "name": "end",
          "type": "uint256"
        },
        {
          "internalType": "uint256",
          "name": "lastEnd",
          "type": "uint256"
        }
      ],
      "name": "drop_winner_token_id",
      "outputs": [
        {
          "internalType": "uint256",
          "name": "",
          "type": "uint256"
        }
      ],
      "stateMutability": "view",
      "type": "function",
      "constant": true
    }
  ],
  "bytecode": "0x608060405234801561001057600080fd5b5061002d61002261003260201b60201c565b61003a60201b60201c565b6100fe565b600033905090565b60008060009054906101000a900473ffffffffffffffffffffffffffffffffffffffff169050816000806101000a81548173ffffffffffffffffffffffffffffffffffffffff021916908373ffffffffffffffffffffffffffffffffffffffff1602179055508173ffffffffffffffffffffffffffffffffffffffff168173ffffffffffffffffffffffffffffffffffffffff167f8be0079c531659141344cd1fd0a4f28419497f9722a3daafe3b4186f6b6457e060405160405180910390a35050565b610d0f8061010d6000396000f3fe608060405234801561001057600080fd5b506004361061007d5760003560e01c80638da5cb5b1161005b5780638da5cb5b146100d8578063edd3159d146100f6578063f2fde38b14610114578063f5a62e19146101305761007d565b80635cc42e8d14610082578063698245e01461009e578063715018a6146100ce575b600080fd5b61009c600480360381019061009791906107e0565b61014c565b005b6100b860048036038101906100b39190610843565b61020c565b6040516100c591906108a5565b60405180910390f35b6100d66103e5565b005b6100e061046d565b6040516100ed91906108cf565b60405180910390f35b6100fe610496565b60405161010b91906108cf565b60405180910390f35b61012e600480360381019061012991906107e0565b6104c0565b005b61014a600480360381019061014591906107e0565b6105b8565b005b610154610678565b73ffffffffffffffffffffffffffffffffffffffff1661017261046d565b73ffffffffffffffffffffffffffffffffffffffff16146101c8576040517f08c379a00000000000000000000000000000000000000000000000000000000081526004016101bf90610947565b60405180910390fd5b80600260006101000a81548173ffffffffffffffffffffffffffffffffffffffff021916908373ffffffffffffffffffffffffffffffffffffffff16021790555050565b6000600260009054906101000a900473ffffffffffffffffffffffffffffffffffffffff1673ffffffffffffffffffffffffffffffffffffffff163373ffffffffffffffffffffffffffffffffffffffff161461029e576040517f08c379a0000000000000000000000000000000000000000000000000000000008152600401610295906109b3565b60405180910390fd5b600060016064866102af9190610a02565b6102b99190610a5c565b90508083116102c6578290505b80841015610309576040517f08c379a000000000000000000000000000000000000000000000000000000000815260040161030090610afe565b60405180910390fd5b6000444260405160200161031e929190610b1e565b6040516020818303038152906040528051906020012060001c9050600081141561037d576040517f08c379a000000000000000000000000000000000000000000000000000000000815260040161037490610b93565b60405180910390fd5b600061038c6001600a84610680565b9050600060018211156103ab576103a4848885610680565b90506103d7565b600184116103bc57600190506103d6565b6103d3600180866103cd9190610bb3565b85610680565b90505b5b809450505050509392505050565b6103ed610678565b73ffffffffffffffffffffffffffffffffffffffff1661040b61046d565b73ffffffffffffffffffffffffffffffffffffffff1614610461576040517f08c379a000000000000000000000000000000000000000000000000000000000815260040161045890610947565b60405180910390fd5b61046b60006106b9565b565b60008060009054906101000a900473ffffffffffffffffffffffffffffffffffffffff16905090565b6000600160009054906101000a900473ffffffffffffffffffffffffffffffffffffffff16905090565b6104c8610678565b73ffffffffffffffffffffffffffffffffffffffff166104e661046d565b73ffffffffffffffffffffffffffffffffffffffff161461053c576040517f08c379a000000000000000000000000000000000000000000000000000000000815260040161053390610947565b60405180910390fd5b600073ffffffffffffffffffffffffffffffffffffffff168173ffffffffffffffffffffffffffffffffffffffff1614156105ac576040517f08c379a00000000000000000000000000000000000000000000000000000000081526004016105a390610c59565b60405180910390fd5b6105b5816106b9565b50565b6105c0610678565b73ffffffffffffffffffffffffffffffffffffffff166105de61046d565b73ffffffffffffffffffffffffffffffffffffffff1614610634576040517f08c379a000000000000000000000000000000000000000000000000000000000815260040161062b90610947565b60405180910390fd5b80600160006101000a81548173ffffffffffffffffffffffffffffffffffffffff021916908373ffffffffffffffffffffffffffffffffffffffff16021790555050565b600033905090565b6000600184846106909190610bb3565b61069a9190610a5c565b826106a59190610ca8565b846106b09190610a5c565b90509392505050565b60008060009054906101000a900473ffffffffffffffffffffffffffffffffffffffff169050816000806101000a81548173ffffffffffffffffffffffffffffffffffffffff021916908373ffffffffffffffffffffffffffffffffffffffff1602179055508173ffffffffffffffffffffffffffffffffffffffff168173ffffffffffffffffffffffffffffffffffffffff167f8be0079c531659141344cd1fd0a4f28419497f9722a3daafe3b4186f6b6457e060405160405180910390a35050565b600080fd5b600073ffffffffffffffffffffffffffffffffffffffff82169050919050565b60006107ad82610782565b9050919050565b6107bd816107a2565b81146107c857600080fd5b50565b6000813590506107da816107b4565b92915050565b6000602082840312156107f6576107f561077d565b5b6000610804848285016107cb565b91505092915050565b6000819050919050565b6108208161080d565b811461082b57600080fd5b50565b60008135905061083d81610817565b92915050565b60008060006060848603121561085c5761085b61077d565b5b600061086a8682870161082e565b935050602061087b8682870161082e565b925050604061088c8682870161082e565b9150509250925092565b61089f8161080d565b82525050565b60006020820190506108ba6000830184610896565b92915050565b6108c9816107a2565b82525050565b60006020820190506108e460008301846108c0565b92915050565b600082825260208201905092915050565b7f4f776e61626c653a2063616c6c6572206973206e6f7420746865206f776e6572600082015250565b60006109316020836108ea565b915061093c826108fb565b602082019050919050565b6000602082019050818103600083015261096081610924565b9050919050565b7f5065726d697373696f6e2044656e696564000000000000000000000000000000600082015250565b600061099d6011836108ea565b91506109a882610967565b602082019050919050565b600060208201905081810360008301526109cc81610990565b9050919050565b7f4e487b7100000000000000000000000000000000000000000000000000000000600052601160045260246000fd5b6000610a0d8261080d565b9150610a188361080d565b9250817fffffffffffffffffffffffffffffffffffffffffffffffffffffffffffffffff0483118215151615610a5157610a506109d3565b5b828202905092915050565b6000610a678261080d565b9150610a728361080d565b9250827fffffffffffffffffffffffffffffffffffffffffffffffffffffffffffffffff03821115610aa757610aa66109d3565b5b828201905092915050565b7f57726f6e672044726f7020436f6e646974696f6e000000000000000000000000600082015250565b6000610ae86014836108ea565b9150610af382610ab2565b602082019050919050565b60006020820190508181036000830152610b1781610adb565b9050919050565b6000604082019050610b336000830185610896565b610b406020830184610896565b9392505050565b7f53656564204e6f74205265616479000000000000000000000000000000000000600082015250565b6000610b7d600e836108ea565b9150610b8882610b47565b602082019050919050565b60006020820190508181036000830152610bac81610b70565b9050919050565b6000610bbe8261080d565b9150610bc98361080d565b925082821015610bdc57610bdb6109d3565b5b828203905092915050565b7f4f776e61626c653a206e6577206f776e657220697320746865207a65726f206160008201527f6464726573730000000000000000000000000000000000000000000000000000602082015250565b6000610c436026836108ea565b9150610c4e82610be7565b604082019050919050565b60006020820190508181036000830152610c7281610c36565b9050919050565b7f4e487b7100000000000000000000000000000000000000000000000000000000600052601260045260246000fd5b6000610cb38261080d565b9150610cbe8361080d565b925082610cce57610ccd610c79565b5b82820690509291505056fea26469706673582212202b4b5169783f9b54be6ebe167951e8cf0f9fceac25fde37fcc519f75331ffb1064736f6c634300080b0033",
  "immutableReferences": {},
  "source": "// SPDX-License-Identifier: MIT\npragma solidity ^0.8.0;\n\nimport \"@openzeppelin/contracts/access/Ownable.sol\";\nimport \"./base/VRFv2Consumer.sol\";\n\ncontract ChanceDrop is Ownable {\n\n    address VRF_ADDR;\n    address DROP_MINTER;\n    \n    function setVRF(address _addr) public onlyOwner {\n        VRF_ADDR = _addr;\n    }\n\n    function getVRF() public view returns (address) {\n        return VRF_ADDR;\n    }\n\n    function get_rand(uint256 start, uint256 end, uint256 _seed) private pure returns(uint256) {\n        return start + _seed%(end - start + 1);\n    }\n\n    function setDropOwner(address _addr) public onlyOwner {\n        DROP_MINTER = _addr;\n    }\n\n    function drop_winner_token_id(uint256 round, uint256 end, uint256 lastEnd) public view returns (uint256){\n        require(msg.sender == DROP_MINTER, \"Permission Denied\");\n        uint256 start = round * 100 + 1;\n        if (lastEnd <= start) {\n            start = lastEnd; \n        }\n        require(end >= start, \"Wrong Drop Condition\");\n\n        // test seed\n        uint256 _seed = uint256(keccak256(abi.encode(block.difficulty, block.timestamp)));\n        // uint256 _seed = VRFv2Consumer(VRF_ADDR).getSeed(round%24);\n        require(_seed !=0 , \"Seed Not Ready\");\n\n        uint256 winner_in_round = get_rand(1, 10, _seed);\n        uint256 winner_id;\n        if (winner_in_round > 1){\n            // drop winner in this round\n            winner_id = get_rand(start, end, _seed);\n        } else {\n            // drop winner in history round\n            if (start <= 1){\n                winner_id = 1;\n            } else {\n                winner_id = get_rand(1, start - 1, _seed);\n            }\n        }\n        return winner_id;\n    }\n\n}\n",
  "sourcePath": "/Users/apple/Documents/work/chance_contract/contracts/ChanceDrop.sol",
  "compiler": {
    "name": "solc",
    "version": "0.8.11+commit.d7f03943.Emscripten.clang"
  },
  "schemaVersion": "3.4.4",
  "updatedAt": "2022-03-22T06:59:55.863Z",
  "networkType": "ethereum",
  "devdoc": {
    "kind": "dev",
    "methods": {
      "owner()": {
        "details": "Returns the address of the current owner."
      },
      "renounceOwnership()": {
        "details": "Leaves the contract without owner. It will not be possible to call `onlyOwner` functions anymore. Can only be called by the current owner. NOTE: Renouncing ownership will leave the contract without an owner, thereby removing any functionality that is only available to the owner."
      },
      "transferOwnership(address)": {
        "details": "Transfers ownership of the contract to a new account (`newOwner`). Can only be called by the current owner."
      }
    },
    "version": 1
  },
  "userdoc": {
    "kind": "user",
    "methods": {},
    "version": 1
  }
}