{
  "contractName": "ChanceInvite",
  "abi": [
    {
      "anonymous": false,
      "inputs": [
        {
          "indexed": true,
          "internalType": "address",
          "name": "previousOwner",
          "type": "address"
        },
        {
          "indexed": true,
          "internalType": "address",
          "name": "newOwner",
          "type": "address"
        }
      ],
      "name": "OwnershipTransferred",
      "type": "event"
    },
    {
      "inputs": [],
      "name": "BLACKHOLE_ADDR",
      "outputs": [
        {
          "internalType": "address",
          "name": "",
          "type": "address"
        }
      ],
      "stateMutability": "view",
      "type": "function",
      "constant": true
    },
    {
      "inputs": [
        {
          "internalType": "string",
          "name": "",
          "type": "string"
        }
      ],
      "name": "inviteAddrMap",
      "outputs": [
        {
          "internalType": "address",
          "name": "",
          "type": "address"
        }
      ],
      "stateMutability": "view",
      "type": "function",
      "constant": true
    },
    {
      "inputs": [
        {
          "internalType": "address",
          "name": "",
          "type": "address"
        }
      ],
      "name": "inviteCodeMap",
      "outputs": [
        {
          "internalType": "string",
          "name": "",
          "type": "string"
        }
      ],
      "stateMutability": "view",
      "type": "function",
      "constant": true
    },
    {
      "inputs": [
        {
          "internalType": "address",
          "name": "",
          "type": "address"
        }
      ],
      "name": "inviteCount",
      "outputs": [
        {
          "internalType": "uint256",
          "name": "",
          "type": "uint256"
        }
      ],
      "stateMutability": "view",
      "type": "function",
      "constant": true
    },
    {
      "inputs": [
        {
          "internalType": "address",
          "name": "",
          "type": "address"
        }
      ],
      "name": "inviteRecordMap",
      "outputs": [
        {
          "internalType": "address",
          "name": "_inviteAddr",
          "type": "address"
        },
        {
          "internalType": "uint256",
          "name": "_timestamp",
          "type": "uint256"
        }
      ],
      "stateMutability": "view",
      "type": "function",
      "constant": true
    },
    {
      "inputs": [],
      "name": "inviteTTL",
      "outputs": [
        {
          "internalType": "uint256",
          "name": "",
          "type": "uint256"
        }
      ],
      "stateMutability": "view",
      "type": "function",
      "constant": true
    },
    {
      "inputs": [],
      "name": "owner",
      "outputs": [
        {
          "internalType": "address",
          "name": "",
          "type": "address"
        }
      ],
      "stateMutability": "view",
      "type": "function",
      "constant": true
    },
    {
      "inputs": [],
      "name": "renounceOwnership",
      "outputs": [],
      "stateMutability": "nonpayable",
      "type": "function"
    },
    {
      "inputs": [
        {
          "internalType": "address",
          "name": "newOwner",
          "type": "address"
        }
      ],
      "name": "transferOwnership",
      "outputs": [],
      "stateMutability": "nonpayable",
      "type": "function"
    },
    {
      "inputs": [
        {
          "internalType": "uint256",
          "name": "_t",
          "type": "uint256"
        }
      ],
      "name": "setInviteTTL",
      "outputs": [],
      "stateMutability": "nonpayable",
      "type": "function"
    },
    {
      "inputs": [],
      "name": "getInviteTTL",
      "outputs": [
        {
          "internalType": "uint256",
          "name": "",
          "type": "uint256"
        }
      ],
      "stateMutability": "view",
      "type": "function",
      "constant": true
    },
    {
      "inputs": [
        {
          "internalType": "address",
          "name": "_addr",
          "type": "address"
        }
      ],
      "name": "getInviteCode",
      "outputs": [
        {
          "internalType": "string",
          "name": "",
          "type": "string"
        }
      ],
      "stateMutability": "view",
      "type": "function",
      "constant": true
    },
    {
      "inputs": [
        {
          "internalType": "string",
          "name": "_i",
          "type": "string"
        }
      ],
      "name": "getInviteAddr",
      "outputs": [
        {
          "internalType": "address",
          "name": "",
          "type": "address"
        }
      ],
      "stateMutability": "view",
      "type": "function",
      "constant": true
    },
    {
      "inputs": [
        {
          "internalType": "string",
          "name": "inviteCode",
          "type": "string"
        }
      ],
      "name": "setInviteCode",
      "outputs": [],
      "stateMutability": "nonpayable",
      "type": "function"
    },
    {
      "inputs": [
        {
          "internalType": "address",
          "name": "_addr",
          "type": "address"
        }
      ],
      "name": "getInviteCount",
      "outputs": [
        {
          "internalType": "uint256",
          "name": "",
          "type": "uint256"
        }
      ],
      "stateMutability": "view",
      "type": "function",
      "constant": true
    },
    {
      "inputs": [
        {
          "internalType": "address",
          "name": "_addr",
          "type": "address"
        },
        {
          "internalType": "string",
          "name": "_inviteCode",
          "type": "string"
        }
      ],
      "name": "inviteParty",
      "outputs": [
        {
          "internalType": "address",
          "name": "",
          "type": "address"
        }
      ],
      "stateMutability": "nonpayable",
      "type": "function"
    }
  ],
  "bytecode": "0x60806040526000600560006101000a81548173ffffffffffffffffffffffffffffffffffffffff021916908373ffffffffffffffffffffffffffffffffffffffff1602179055506298968060065534801561005957600080fd5b5061007661006b61007b60201b60201c565b61008360201b60201c565b610147565b600033905090565b60008060009054906101000a900473ffffffffffffffffffffffffffffffffffffffff169050816000806101000a81548173ffffffffffffffffffffffffffffffffffffffff021916908373ffffffffffffffffffffffffffffffffffffffff1602179055508173ffffffffffffffffffffffffffffffffffffffff168173ffffffffffffffffffffffffffffffffffffffff167f8be0079c531659141344cd1fd0a4f28419497f9722a3daafe3b4186f6b6457e060405160405180910390a35050565b6117de806101566000396000f3fe608060405234801561001057600080fd5b50600436106101005760003560e01c8063715018a6116100975780639bd86c34116100665780639bd86c34146102c2578063c51948bf146102f2578063dc5ca3b114610310578063f2fde38b1461034057610100565b8063715018a61461026057806378bfc9091461026a5780638da5cb5b14610288578063930916b2146102a657610100565b80632af079a9116100d35780632af079a9146101b457806339600115146101d0578063428b42c51461020057806357b24e6b1461023057610100565b80630455d4d3146101055780631315570f14610135578063221c2f5b1461016557806328cd1e4f14610183575b600080fd5b61011f600480360381019061011a919061113f565b61035c565b60405161012c91906111c9565b60405180910390f35b61014f600480360381019061014a9190611210565b6103a5565b60405161015c9190611256565b60405180910390f35b61016d6103ee565b60405161017a9190611256565b60405180910390f35b61019d60048036038101906101989190611210565b6103f8565b6040516101ab929190611271565b60405180910390f35b6101ce60048036038101906101c991906112c6565b61043c565b005b6101ea60048036038101906101e59190611210565b6104c2565b6040516101f7919061137b565b60405180910390f35b61021a6004803603810190610215919061113f565b610562565b60405161022791906111c9565b60405180910390f35b61024a60048036038101906102459190611210565b6105aa565b6040516102579190611256565b60405180910390f35b6102686105c2565b005b61027261064a565b60405161027f91906111c9565b60405180910390f35b610290610670565b60405161029d91906111c9565b60405180910390f35b6102c060048036038101906102bb919061113f565b610699565b005b6102dc60048036038101906102d79190611210565b6108ed565b6040516102e9919061137b565b60405180910390f35b6102fa6109be565b6040516103079190611256565b60405180910390f35b61032a6004803603810190610325919061139d565b6109c4565b60405161033791906111c9565b60405180910390f35b61035a60048036038101906103559190611210565b610d4e565b005b6002818051602081018201805184825260208301602085012081835280955050505050506000915054906101000a900473ffffffffffffffffffffffffffffffffffffffff1681565b6000600460008373ffffffffffffffffffffffffffffffffffffffff1673ffffffffffffffffffffffffffffffffffffffff168152602001908152602001600020549050919050565b6000600754905090565b60036020528060005260406000206000915090508060000160009054906101000a900473ffffffffffffffffffffffffffffffffffffffff16908060010154905082565b610444610e46565b73ffffffffffffffffffffffffffffffffffffffff16610462610670565b73ffffffffffffffffffffffffffffffffffffffff16146104b8576040517f08c379a00000000000000000000000000000000000000000000000000000000081526004016104af90611445565b60405180910390fd5b8060078190555050565b600160205280600052604060002060009150905080546104e190611494565b80601f016020809104026020016040519081016040528092919081815260200182805461050d90611494565b801561055a5780601f1061052f5761010080835404028352916020019161055a565b820191906000526020600020905b81548152906001019060200180831161053d57829003601f168201915b505050505081565b60006002826040516105749190611502565b908152602001604051809103902060009054906101000a900473ffffffffffffffffffffffffffffffffffffffff169050919050565b60046020528060005260406000206000915090505481565b6105ca610e46565b73ffffffffffffffffffffffffffffffffffffffff166105e8610670565b73ffffffffffffffffffffffffffffffffffffffff161461063e576040517f08c379a000000000000000000000000000000000000000000000000000000000815260040161063590611445565b60405180910390fd5b6106486000610e4e565b565b600560009054906101000a900473ffffffffffffffffffffffffffffffffffffffff1681565b60008060009054906101000a900473ffffffffffffffffffffffffffffffffffffffff16905090565b600560009054906101000a900473ffffffffffffffffffffffffffffffffffffffff1673ffffffffffffffffffffffffffffffffffffffff166002826040516106e29190611502565b908152602001604051809103902060009054906101000a900473ffffffffffffffffffffffffffffffffffffffff1673ffffffffffffffffffffffffffffffffffffffff1614610767576040517f08c379a000000000000000000000000000000000000000000000000000000000815260040161075e90611565565b60405180910390fd5b6000600160003373ffffffffffffffffffffffffffffffffffffffff1673ffffffffffffffffffffffffffffffffffffffff16815260200190815260200160002080546107b390611494565b9050146107f5576040517f08c379a00000000000000000000000000000000000000000000000000000000081526004016107ec906115d1565b60405180910390fd5b6080815110610839576040517f08c379a00000000000000000000000000000000000000000000000000000000081526004016108309061163d565b60405180910390fd5b80600160003373ffffffffffffffffffffffffffffffffffffffff1673ffffffffffffffffffffffffffffffffffffffff168152602001908152602001600020908051906020019061088c929190610f12565b503360028260405161089e9190611502565b908152602001604051809103902060006101000a81548173ffffffffffffffffffffffffffffffffffffffff021916908373ffffffffffffffffffffffffffffffffffffffff16021790555050565b6060600160008373ffffffffffffffffffffffffffffffffffffffff1673ffffffffffffffffffffffffffffffffffffffff168152602001908152602001600020805461093990611494565b80601f016020809104026020016040519081016040528092919081815260200182805461096590611494565b80156109b25780601f10610987576101008083540402835291602001916109b2565b820191906000526020600020905b81548152906001019060200180831161099557829003601f168201915b50505050509050919050565b60075481565b6000806002836040516109d79190611502565b908152602001604051809103902060009054906101000a900473ffffffffffffffffffffffffffffffffffffffff1690508373ffffffffffffffffffffffffffffffffffffffff168173ffffffffffffffffffffffffffffffffffffffff161415610a6757600560009054906101000a900473ffffffffffffffffffffffffffffffffffffffff16915050610d48565b600560009054906101000a900473ffffffffffffffffffffffffffffffffffffffff1673ffffffffffffffffffffffffffffffffffffffff168173ffffffffffffffffffffffffffffffffffffffff1614610d2157600080600360008773ffffffffffffffffffffffffffffffffffffffff1673ffffffffffffffffffffffffffffffffffffffff168152602001908152602001600020600101541415610c4757610b10610f98565b82816000019073ffffffffffffffffffffffffffffffffffffffff16908173ffffffffffffffffffffffffffffffffffffffff16815250504281602001818152505080600360008873ffffffffffffffffffffffffffffffffffffffff1673ffffffffffffffffffffffffffffffffffffffff16815260200190815260200160002060008201518160000160006101000a81548173ffffffffffffffffffffffffffffffffffffffff021916908373ffffffffffffffffffffffffffffffffffffffff160217905550602082015181600101559050506001600460008573ffffffffffffffffffffffffffffffffffffffff1673ffffffffffffffffffffffffffffffffffffffff1681526020019081526020016000206000828254610c36919061168c565b925050819055506001915050610ca4565b600754600360008773ffffffffffffffffffffffffffffffffffffffff1673ffffffffffffffffffffffffffffffffffffffff1681526020019081526020016000206001015442610c9891906116e2565b1015610ca357600190505b5b600115158115151415610d1757600360008673ffffffffffffffffffffffffffffffffffffffff1673ffffffffffffffffffffffffffffffffffffffff16815260200190815260200160002060000160009054906101000a900473ffffffffffffffffffffffffffffffffffffffff1691505b8192505050610d48565b600560009054906101000a900473ffffffffffffffffffffffffffffffffffffffff169150505b92915050565b610d56610e46565b73ffffffffffffffffffffffffffffffffffffffff16610d74610670565b73ffffffffffffffffffffffffffffffffffffffff1614610dca576040517f08c379a0000000000000000000000000000000000000000000000000000000008152600401610dc190611445565b60405180910390fd5b600073ffffffffffffffffffffffffffffffffffffffff168173ffffffffffffffffffffffffffffffffffffffff161415610e3a576040517f08c379a0000000000000000000000000000000000000000000000000000000008152600401610e3190611788565b60405180910390fd5b610e4381610e4e565b50565b600033905090565b60008060009054906101000a900473ffffffffffffffffffffffffffffffffffffffff169050816000806101000a81548173ffffffffffffffffffffffffffffffffffffffff021916908373ffffffffffffffffffffffffffffffffffffffff1602179055508173ffffffffffffffffffffffffffffffffffffffff168173ffffffffffffffffffffffffffffffffffffffff167f8be0079c531659141344cd1fd0a4f28419497f9722a3daafe3b4186f6b6457e060405160405180910390a35050565b828054610f1e90611494565b90600052602060002090601f016020900481019282610f405760008555610f87565b82601f10610f5957805160ff1916838001178555610f87565b82800160010185558215610f87579182015b82811115610f86578251825591602001919060010190610f6b565b5b509050610f949190610fc8565b5090565b6040518060400160405280600073ffffffffffffffffffffffffffffffffffffffff168152602001600081525090565b5b80821115610fe1576000816000905550600101610fc9565b5090565b6000604051905090565b600080fd5b600080fd5b600080fd5b600080fd5b6000601f19601f8301169050919050565b7f4e487b7100000000000000000000000000000000000000000000000000000000600052604160045260246000fd5b61104c82611003565b810181811067ffffffffffffffff8211171561106b5761106a611014565b5b80604052505050565b600061107e610fe5565b905061108a8282611043565b919050565b600067ffffffffffffffff8211156110aa576110a9611014565b5b6110b382611003565b9050602081019050919050565b82818337600083830152505050565b60006110e26110dd8461108f565b611074565b9050828152602081018484840111156110fe576110fd610ffe565b5b6111098482856110c0565b509392505050565b600082601f83011261112657611125610ff9565b5b81356111368482602086016110cf565b91505092915050565b60006020828403121561115557611154610fef565b5b600082013567ffffffffffffffff81111561117357611172610ff4565b5b61117f84828501611111565b91505092915050565b600073ffffffffffffffffffffffffffffffffffffffff82169050919050565b60006111b382611188565b9050919050565b6111c3816111a8565b82525050565b60006020820190506111de60008301846111ba565b92915050565b6111ed816111a8565b81146111f857600080fd5b50565b60008135905061120a816111e4565b92915050565b60006020828403121561122657611225610fef565b5b6000611234848285016111fb565b91505092915050565b6000819050919050565b6112508161123d565b82525050565b600060208201905061126b6000830184611247565b92915050565b600060408201905061128660008301856111ba565b6112936020830184611247565b9392505050565b6112a38161123d565b81146112ae57600080fd5b50565b6000813590506112c08161129a565b92915050565b6000602082840312156112dc576112db610fef565b5b60006112ea848285016112b1565b91505092915050565b600081519050919050565b600082825260208201905092915050565b60005b8381101561132d578082015181840152602081019050611312565b8381111561133c576000848401525b50505050565b600061134d826112f3565b61135781856112fe565b935061136781856020860161130f565b61137081611003565b840191505092915050565b600060208201905081810360008301526113958184611342565b905092915050565b600080604083850312156113b4576113b3610fef565b5b60006113c2858286016111fb565b925050602083013567ffffffffffffffff8111156113e3576113e2610ff4565b5b6113ef85828601611111565b9150509250929050565b7f4f776e61626c653a2063616c6c6572206973206e6f7420746865206f776e6572600082015250565b600061142f6020836112fe565b915061143a826113f9565b602082019050919050565b6000602082019050818103600083015261145e81611422565b9050919050565b7f4e487b7100000000000000000000000000000000000000000000000000000000600052602260045260246000fd5b600060028204905060018216806114ac57607f821691505b602082108114156114c0576114bf611465565b5b50919050565b600081905092915050565b60006114dc826112f3565b6114e681856114c6565b93506114f681856020860161130f565b80840191505092915050565b600061150e82846114d1565b915081905092915050565b7f696e7669746520636f6465206973207573656400000000000000000000000000600082015250565b600061154f6013836112fe565b915061155a82611519565b602082019050919050565b6000602082019050818103600083015261157e81611542565b9050919050565b7f696e7669746520636f6465206f6e6c7920736574206f6e636500000000000000600082015250565b60006115bb6019836112fe565b91506115c682611585565b602082019050919050565b600060208201905081810360008301526115ea816115ae565b9050919050565b7f696e7669746520636f646520746f6f206c6f6e67000000000000000000000000600082015250565b60006116276014836112fe565b9150611632826115f1565b602082019050919050565b600060208201905081810360008301526116568161161a565b9050919050565b7f4e487b7100000000000000000000000000000000000000000000000000000000600052601160045260246000fd5b60006116978261123d565b91506116a28361123d565b9250827fffffffffffffffffffffffffffffffffffffffffffffffffffffffffffffffff038211156116d7576116d661165d565b5b828201905092915050565b60006116ed8261123d565b91506116f88361123d565b92508282101561170b5761170a61165d565b5b828203905092915050565b7f4f776e61626c653a206e6577206f776e657220697320746865207a65726f206160008201527f6464726573730000000000000000000000000000000000000000000000000000602082015250565b60006117726026836112fe565b915061177d82611716565b604082019050919050565b600060208201905081810360008301526117a181611765565b905091905056fea26469706673582212200fb0b8d8af2734a639db7a77497764f37af00095a60160d7ae816b4401a5a11564736f6c634300080b0033",
  "immutableReferences": {},
  "source": "// SPDX-License-Identifier: MIT\npragma solidity ^0.8.0;\n\nimport \"@openzeppelin/contracts/utils/Strings.sol\";\nimport \"@openzeppelin/contracts/access/Ownable.sol\";\n\ncontract ChanceInvite is Ownable {\n    using Strings for string;\n\n    mapping(address => string) public inviteCodeMap;\n    mapping(string => address) public inviteAddrMap;\n    struct INVITE {\n        address _inviteAddr;\n        uint256 _timestamp;\n    }\n    mapping(address => INVITE) public inviteRecordMap;\n    mapping(address => uint256) public inviteCount;\n\n    address public BLACKHOLE_ADDR = 0x0000000000000000000000000000000000000000;\n    uint private randNonce = 10000000;\n    uint256 public inviteTTL;\n\n    function setInviteTTL(uint256 _t) public onlyOwner {\n        inviteTTL = _t;\n    }\n\n    function getInviteTTL() public view returns (uint256) {\n        return inviteTTL;\n    }\n\n    function getInviteCode(address _addr) public view returns (string memory) {\n        return inviteCodeMap[_addr];\n    }\n\n    function getInviteAddr(string memory _i) public view returns (address) {\n        return inviteAddrMap[_i];\n    }\n\n    function setInviteCode(string memory inviteCode) public {\n        require(inviteAddrMap[inviteCode] == BLACKHOLE_ADDR, \"invite code is used\");\n        require(bytes(inviteCodeMap[msg.sender]).length == 0, \"invite code only set once\");\n        require(bytes(inviteCode).length < 128, \"invite code too long\");\n        inviteCodeMap[msg.sender] = inviteCode;\n        inviteAddrMap[inviteCode] = msg.sender;\n    }\n\n    function generateInviteCode(address _addr) private {\n        randNonce++;\n        string memory _i = Strings.toString(randNonce);\n        inviteCodeMap[_addr] = _i;\n        inviteAddrMap[_i] = _addr;\n    }\n\n    function getInviteCount(address _addr) public view returns (uint256){\n        return inviteCount[_addr];\n    }\n\n    function inviteParty(address _addr, string memory _inviteCode) public returns (address) {\n        // if (bytes(inviteCodeMap[_addr]).length == 0) {\n        //     // if new addr\n        //     // create addr invite code\n        //     generateInviteCode(_addr);\n        //     // set msg.sender ttl addr 30 days\n        // }\n\n        address inviteAddr = inviteAddrMap[_inviteCode];\n        if (inviteAddr == _addr) {\n            return BLACKHOLE_ADDR;\n        }\n        if (inviteAddr != BLACKHOLE_ADDR) {\n            bool flag;\n            // not in invite record, save\n            if (inviteRecordMap[_addr]._timestamp == 0) {\n                INVITE memory invite;\n                invite._inviteAddr = inviteAddr;\n                invite._timestamp = block.timestamp;\n                inviteRecordMap[_addr] = invite;\n                inviteCount[inviteAddr] += 1;\n                flag = true;\n            } else {\n                if (block.timestamp - inviteRecordMap[_addr]._timestamp < inviteTTL) {\n                    flag = true;\n                }\n            }\n            if (flag == true) {\n                inviteAddr = inviteRecordMap[_addr]._inviteAddr;\n            }\n            return inviteAddr;\n        } else {\n            return BLACKHOLE_ADDR;\n        }\n    }\n}",
  "sourcePath": "/Users/apple/Documents/work/chance_contract/contracts/ChanceInvite.sol",
  "compiler": {
    "name": "solc",
    "version": "0.8.11+commit.d7f03943.Emscripten.clang"
  },
  "schemaVersion": "3.4.4",
  "updatedAt": "2022-03-22T06:59:56.503Z",
  "networkType": "ethereum",
  "devdoc": {
    "kind": "dev",
    "methods": {
      "owner()": {
        "details": "Returns the address of the current owner."
      },
      "renounceOwnership()": {
        "details": "Leaves the contract without owner. It will not be possible to call `onlyOwner` functions anymore. Can only be called by the current owner. NOTE: Renouncing ownership will leave the contract without an owner, thereby removing any functionality that is only available to the owner."
      },
      "transferOwnership(address)": {
        "details": "Transfers ownership of the contract to a new account (`newOwner`). Can only be called by the current owner."
      }
    },
    "version": 1
  },
  "userdoc": {
    "kind": "user",
    "methods": {},
    "version": 1
  }
}