{
  "contractName": "VRFv2Consumer",
  "abi": [
    {
      "inputs": [],
      "stateMutability": "nonpayable",
      "type": "constructor"
    },
    {
      "inputs": [
        {
          "internalType": "address",
          "name": "have",
          "type": "address"
        },
        {
          "internalType": "address",
          "name": "want",
          "type": "address"
        }
      ],
      "name": "OnlyCoordinatorCanFulfill",
      "type": "error"
    },
    {
      "inputs": [
        {
          "internalType": "uint256",
          "name": "requestId",
          "type": "uint256"
        },
        {
          "internalType": "uint256[]",
          "name": "randomWords",
          "type": "uint256[]"
        }
      ],
      "name": "rawFulfillRandomWords",
      "outputs": [],
      "stateMutability": "nonpayable",
      "type": "function"
    },
    {
      "inputs": [],
      "name": "reader",
      "outputs": [
        {
          "internalType": "address",
          "name": "",
          "type": "address"
        }
      ],
      "stateMutability": "view",
      "type": "function",
      "constant": true
    },
    {
      "inputs": [],
      "name": "s_requestId",
      "outputs": [
        {
          "internalType": "uint256",
          "name": "",
          "type": "uint256"
        }
      ],
      "stateMutability": "view",
      "type": "function",
      "constant": true
    },
    {
      "inputs": [],
      "name": "requestRandomWords",
      "outputs": [],
      "stateMutability": "nonpayable",
      "type": "function"
    },
    {
      "inputs": [
        {
          "internalType": "address",
          "name": "_r",
          "type": "address"
        }
      ],
      "name": "setReader",
      "outputs": [],
      "stateMutability": "nonpayable",
      "type": "function"
    },
    {
      "inputs": [
        {
          "internalType": "uint256",
          "name": "_s",
          "type": "uint256"
        }
      ],
      "name": "getSeed",
      "outputs": [
        {
          "internalType": "uint256",
          "name": "",
          "type": "uint256"
        }
      ],
      "stateMutability": "view",
      "type": "function",
      "constant": true
    }
  ],
  "bytecode": "0x60a0604052736a2aad07396b36fe02a22b33cf443582f682c82f600260006101000a81548173ffffffffffffffffffffffffffffffffffffffff021916908373ffffffffffffffffffffffffffffffffffffffff1602179055507384b9b910527ad5c03a9ca831909e21e236ea7b06600360006101000a81548173ffffffffffffffffffffffffffffffffffffffff021916908373ffffffffffffffffffffffffffffffffffffffff1602179055507fd4bb89654db74673a187bd804519e65e3f71a52bc55f11da7601a13dcf50531460001b600455620f4240600560006101000a81548163ffffffff021916908363ffffffff1602179055506003600560046101000a81548161ffff021916908361ffff160217905550601e600560066101000a81548163ffffffff021916908363ffffffff16021790555034801561014557600080fd5b50600260009054906101000a900473ffffffffffffffffffffffffffffffffffffffff168073ffffffffffffffffffffffffffffffffffffffff1660808173ffffffffffffffffffffffffffffffffffffffff168152505050600260009054906101000a900473ffffffffffffffffffffffffffffffffffffffff166000806101000a81548173ffffffffffffffffffffffffffffffffffffffff021916908373ffffffffffffffffffffffffffffffffffffffff160217905550600360009054906101000a900473ffffffffffffffffffffffffffffffffffffffff16600160006101000a81548173ffffffffffffffffffffffffffffffffffffffff021916908373ffffffffffffffffffffffffffffffffffffffff16021790555033600860006101000a81548173ffffffffffffffffffffffffffffffffffffffff021916908373ffffffffffffffffffffffffffffffffffffffff16021790555061010c600160146101000a81548167ffffffffffffffff021916908367ffffffffffffffff160217905550608051610a516102f160003960008181610117015261016b0152610a516000f3fe608060405234801561001057600080fd5b50600436106100625760003560e01c80631fe543e3146100675780639598da7f14610083578063d4fc42c61461009f578063e0c86289146100bd578063e0d4ea37146100c7578063e89e106a146100f7575b600080fd5b610081600480360381019061007c91906106d1565b610115565b005b61009d6004803603810190610098919061078b565b6101d5565b005b6100a7610273565b6040516100b491906107c7565b60405180910390f35b6100c5610299565b005b6100e160048036038101906100dc91906107e2565b6103eb565b6040516100ee919061081e565b60405180910390f35b6100ff6104a3565b60405161010c919061081e565b60405180910390f35b7f000000000000000000000000000000000000000000000000000000000000000073ffffffffffffffffffffffffffffffffffffffff163373ffffffffffffffffffffffffffffffffffffffff16146101c757337f00000000000000000000000000000000000000000000000000000000000000006040517f1cf993f40000000000000000000000000000000000000000000000000000000081526004016101be929190610839565b60405180910390fd5b6101d182826104a9565b5050565b600860009054906101000a900473ffffffffffffffffffffffffffffffffffffffff1673ffffffffffffffffffffffffffffffffffffffff163373ffffffffffffffffffffffffffffffffffffffff161461022f57600080fd5b80600960006101000a81548173ffffffffffffffffffffffffffffffffffffffff021916908373ffffffffffffffffffffffffffffffffffffffff16021790555050565b600960009054906101000a900473ffffffffffffffffffffffffffffffffffffffff1681565b600860009054906101000a900473ffffffffffffffffffffffffffffffffffffffff1673ffffffffffffffffffffffffffffffffffffffff163373ffffffffffffffffffffffffffffffffffffffff16146102f357600080fd5b60008054906101000a900473ffffffffffffffffffffffffffffffffffffffff1673ffffffffffffffffffffffffffffffffffffffff16635d3b1d30600454600160149054906101000a900467ffffffffffffffff16600560049054906101000a900461ffff16600560009054906101000a900463ffffffff16600560069054906101000a900463ffffffff166040518663ffffffff1660e01b81526004016103a09594939291906108da565b6020604051808303816000875af11580156103bf573d6000803e3d6000fd5b505050506040513d601f19601f820116820180604052508101906103e39190610942565b600781905550565b6000600960009054906101000a900473ffffffffffffffffffffffffffffffffffffffff1673ffffffffffffffffffffffffffffffffffffffff163373ffffffffffffffffffffffffffffffffffffffff161461047d576040517f08c379a0000000000000000000000000000000000000000000000000000000008152600401610474906109cc565b60405180910390fd5b60068281548110610491576104906109ec565b5b90600052602060002001549050919050565b60075481565b80600690805190602001906104bf9291906104c4565b505050565b828054828255906000526020600020908101928215610500579160200282015b828111156104ff5782518255916020019190600101906104e4565b5b50905061050d9190610511565b5090565b5b8082111561052a576000816000905550600101610512565b5090565b6000604051905090565b600080fd5b600080fd5b6000819050919050565b61055581610542565b811461056057600080fd5b50565b6000813590506105728161054c565b92915050565b600080fd5b6000601f19601f8301169050919050565b7f4e487b7100000000000000000000000000000000000000000000000000000000600052604160045260246000fd5b6105c68261057d565b810181811067ffffffffffffffff821117156105e5576105e461058e565b5b80604052505050565b60006105f861052e565b905061060482826105bd565b919050565b600067ffffffffffffffff8211156106245761062361058e565b5b602082029050602081019050919050565b600080fd5b600061064d61064884610609565b6105ee565b905080838252602082019050602084028301858111156106705761066f610635565b5b835b8181101561069957806106858882610563565b845260208401935050602081019050610672565b5050509392505050565b600082601f8301126106b8576106b7610578565b5b81356106c884826020860161063a565b91505092915050565b600080604083850312156106e8576106e7610538565b5b60006106f685828601610563565b925050602083013567ffffffffffffffff8111156107175761071661053d565b5b610723858286016106a3565b9150509250929050565b600073ffffffffffffffffffffffffffffffffffffffff82169050919050565b60006107588261072d565b9050919050565b6107688161074d565b811461077357600080fd5b50565b6000813590506107858161075f565b92915050565b6000602082840312156107a1576107a0610538565b5b60006107af84828501610776565b91505092915050565b6107c18161074d565b82525050565b60006020820190506107dc60008301846107b8565b92915050565b6000602082840312156107f8576107f7610538565b5b600061080684828501610563565b91505092915050565b61081881610542565b82525050565b6000602082019050610833600083018461080f565b92915050565b600060408201905061084e60008301856107b8565b61085b60208301846107b8565b9392505050565b6000819050919050565b61087581610862565b82525050565b600067ffffffffffffffff82169050919050565b6108988161087b565b82525050565b600061ffff82169050919050565b6108b58161089e565b82525050565b600063ffffffff82169050919050565b6108d4816108bb565b82525050565b600060a0820190506108ef600083018861086c565b6108fc602083018761088f565b61090960408301866108ac565b61091660608301856108cb565b61092360808301846108cb565b9695505050505050565b60008151905061093c8161054c565b92915050565b60006020828403121561095857610957610538565b5b60006109668482850161092d565b91505092915050565b600082825260208201905092915050565b7f6e6f74416c6c6f77000000000000000000000000000000000000000000000000600082015250565b60006109b660088361096f565b91506109c182610980565b602082019050919050565b600060208201905081810360008301526109e5816109a9565b9050919050565b7f4e487b7100000000000000000000000000000000000000000000000000000000600052603260045260246000fdfea264697066735822122031839481a5a171d4103005f18d15b8d2de345ae41d19d3cf6c603e9003038e2964736f6c634300080b0033",
  "immutableReferences": {
    "10": [
      {
        "length": 32,
        "start": 279
      },
      {
        "length": 32,
        "start": 363
      }
    ]
  },
  "source": "// SPDX-License-Identifier: MIT\n// An example of a consumer contract that relies on a subscription for funding.\npragma solidity ^0.8.7;\n\nimport \"@chainlink/contracts/src/v0.8/interfaces/LinkTokenInterface.sol\";\nimport \"@chainlink/contracts/src/v0.8/interfaces/VRFCoordinatorV2Interface.sol\";\nimport \"@chainlink/contracts/src/v0.8/VRFConsumerBaseV2.sol\";\n\ncontract VRFv2Consumer is VRFConsumerBaseV2 {\n  VRFCoordinatorV2Interface COORDINATOR;\n  LinkTokenInterface LINKTOKEN;\n\n  // Your subscription ID.\n  uint64 s_subscriptionId;\n\n  // Rinkeby coordinator. For other networks,\n  // see https://docs.chain.link/docs/vrf-contracts/#configurations\n  address vrfCoordinator = 0x6A2AAd07396B36Fe02a22b33cf443582f682c82f;\n\n  // Rinkeby LINK token contract. For other networks,\n  // see https://docs.chain.link/docs/vrf-contracts/#configurations\n  address link = 0x84b9B910527Ad5C03A9Ca831909E21e236EA7b06;\n\n  // The gas lane to use, which specifies the maximum gas price to bump to.\n  // For a list of available gas lanes on each network,\n  // see https://docs.chain.link/docs/vrf-contracts/#configurations\n  bytes32 keyHash = 0xd4bb89654db74673a187bd804519e65e3f71a52bc55f11da7601a13dcf505314;\n\n  // Depends on the number of requested values that you want sent to the\n  // fulfillRandomWords() function. Storing each word costs about 20,000 gas,\n  // so 100,000 is a safe default for this example contract. Test and adjust\n  // this limit based on the network that you select, the size of the request,\n  // and the processing of the callback request in the fulfillRandomWords()\n  // function.\n  uint32 callbackGasLimit = 1000000;\n\n  // The default is 3, but you can set this higher.\n  uint16 requestConfirmations = 3;\n\n  // For this example, retrieve 2 random values in one request.\n  // Cannot exceed VRFCoordinatorV2.MAX_NUM_WORDS.\n  uint32 numWords =  30;\n\n  uint256[] private s_randomWords;\n  uint256 public s_requestId;\n  address s_owner;\n  address public reader;\n\n  constructor() VRFConsumerBaseV2(vrfCoordinator) {\n    COORDINATOR = VRFCoordinatorV2Interface(vrfCoordinator);\n    LINKTOKEN = LinkTokenInterface(link);\n    s_owner = msg.sender;\n    s_subscriptionId = 268;\n  }\n\n  // Assumes the subscription is funded sufficiently.\n  function requestRandomWords() external onlyOwner {\n    // Will revert if subscription is not set and funded.\n    s_requestId = COORDINATOR.requestRandomWords(\n      keyHash,\n      s_subscriptionId,\n      requestConfirmations,\n      callbackGasLimit,\n      numWords\n    );\n  }\n  \n  function fulfillRandomWords(\n    uint256, /* requestId */\n    uint256[] memory randomWords\n  ) internal override {\n    s_randomWords = randomWords;\n  }\n\n  modifier onlyOwner() {\n    require(msg.sender == s_owner);\n    _;\n  }\n\n  function setReader(address _r) public onlyOwner {\n    reader = _r;\n  }\n\n  function getSeed(uint256 _s) public view returns(uint256){\n    require(msg.sender == reader, \"notAllow\");\n    return s_randomWords[_s];\n  }\n}\n",
  "sourcePath": "/Users/apple/Documents/work/chance_contract/contracts/base/VRFv2Consumer.sol",
  "compiler": {
    "name": "solc",
    "version": "0.8.11+commit.d7f03943.Emscripten.clang"
  },
  "schemaVersion": "3.4.4",
  "updatedAt": "2022-03-22T06:59:57.209Z",
  "networkType": "ethereum",
  "devdoc": {
    "kind": "dev",
    "methods": {},
    "version": 1
  },
  "userdoc": {
    "kind": "user",
    "methods": {},
    "version": 1
  }
}